:020000040800F2
:10000000701600205902000827210008311F00083F
:100010002521000803080008E12E00080000000068
:100020000000000000000000000000009D0100082A
:100030000508000800000000F10100088D280008F4
:1000400073020008730200087302000873020008BC
:1000500073020008730200087302000873020008AC
:10006000730200087302000873020008730200089C
:10007000730200087302000873020008730200088C
:10008000730200087302000873020008730200087C
:10009000730200087302000873020008730200086C
:1000A000730200087302000873020008730200085C
:1000B0009529000873020008730200087302000803
:1000C000730200087302000873020008730200083C
:1000D000730200089D2E0008A92E0008D52E0008E6
:1000E000730200087302000873020008730200081C
:1000F0007302000873020008000000000000000006
:1001000000000000000000007302000873020008F5
:1001100000000000000000007302000873020008E5
:1001200073020008730200087302000873020008DB
:1001300073020008730200087302000873020008CB
:100140007302000800000000000000000000000032
:10015000000000000000000000000000000000009F
:100160000000000000000000730200087302000895
:100170007302000800000000730200080000000085
:100180000000000073020008DFF80CD000F006FB4E
:100190000048004711500008701600202B4B1968CA
:1001A0000868B0E8F04F80F30988BFF36F8F4FF015
:1001B000000080F3118870470000000006480068C6
:1001C000006880F3088862B661B6BFF34F8FBFF353
:1001D0006F8F00DF00BF00BF08ED00E0DFF80C000C
:1001E000016841F470010160704700BF88ED00E0D4
:1001F000EFF30980BFF36F8F144B1A681EF0100FD6
:1002000008BF20ED108A20E9F04F106008B44FF0CD
:10021000500080F31188BFF34F8FBFF36F8F05F04D
:100220003FFD4FF0000080F3118808BC1968086892
:10023000B0E8F04F1EF0100F08BFB0EC108A80F34A
:100240000988BFF36F8F704700BF00BF1800002000
:10025000EFF30580704700000648804706480047D6
:10026000FEE7FEE7FEE7FEE7FEE7FEE7FEE7FEE766
:10027000FEE7FEE72D29000889010008202A04DB9B
:10028000203A21FA02F00021704721FA02F3D0400F
:10029000C2F12002914008431946704740EA010329
:1002A0009B0703D009E008C9121F08C0042AFAD22C
:1002B00003E011F8013B00F8013B521EF9D27047F0
:1002C000D2B201E000F8012B491EFBD27047002298
:1002D000F6E710B513460A4604461946FFF7F0FF45
:1002E000204610BD2DE9FE4F81EA030404F00044CE
:1002F00021F0004100944FF0000B23F0004350EA3E
:1003000001045ED052EA03045BD0C3F30A54C1F384
:100310000A552C44A4F2F3340194A0FB0254C1F317
:10032000130141F48011C3F3130343F4801301FB61
:10033000024400FB034E840A970A44EA815447EAC8
:100340008357A4FB076802958D0A05FB07854FEAD2
:10035000932C04FB0C542705029D4FEA065847EAEC
:100360001637B5EB08056EEB070C870E920E47EAC1
:10037000811742EA8312A7FB0201B6EB0B0164EB83
:1003800000042B0D43EA0C335E1844EB1C50DA4694
:100390005146E7FB0201C5F313044FEA0B3343EA6E
:1003A00014534FEA0432019C43EA0603A4F10C04FF
:1003B0000294009CCDE900B400F05CF803B0BDE805
:1003C000F08F00200146F9E730B50B4601460020CA
:1003D0002022012409E021FA02F59D4205D303FA07
:1003E00002F5491B04FA02F52844151EA2F1010288
:1003F000F1DC30BD2DE9F05F0546002092469B46BA
:1004000088460646814640241BE02846414647462A
:100410002246FFF733FF53465A46C01A914110D384
:1004200011461846224600F0CBF92D1A67EB010859
:100430004F4622460120002100F0C2F917EB0009C7
:100440004E41201EA4F10104DFDC484631462A4615
:100450004346BDE8F09F10B5141E73F1000408DA9E
:10046000401C41F1000192185B411A4301D120F078
:10047000010010BD2DE9F04D92469B4611B1B1FA35
:1004800081F202E0B0FA80F22032904600F098F952
:1004900004460F4640EA0A0041EA0B0153465A4619
:1004A000084313D0114653EA010019D0C8F14002A5
:1004B0005046FFF7E3FE05460E4650465946424673
:1004C00000F07EF9084305D0012004E020463946BB
:1004D000BDE8F08D0020054346EAE0762C43374323
:1004E0000A986305E40AA0EB08000022FD0A44EA2A
:1004F00047540A3002D500200146E9E701051019EA
:100500006941DDE9084500196941BDE8F04DA2E700
:100510002DE9FE4F804681EA0300C00F0C46009093
:1005200021F0004123F00045B8EB0200A94105D2BB
:100530004046214690461C460B46024623F00040AA
:10054000104347D0270DC7F30A00C3F30A510290A6
:10055000401A019040286BDAC3F3130040F4801B6B
:100560000098924620B10023D2EB030A63EB0B0BF9
:1005700001985946C0F14002504600F021F9064664
:100580000D4650465946019A00F029F910EB080033
:100590006141002487EA115284EAE7731A4340D08C
:1005A000009A62B3019A012A4FEA075215DC001B38
:1005B00061EB02014FF0004202EA0752CDE900422E
:1005C000001C41F5801132462B46FFF753FF03B064
:1005D000BDE8F08F40462146F9E7001B61EB0201C0
:1005E000001C41F5801300185B412018A2F500178C
:1005F00047EB030140EAD570B6196D4111E06D0873
:100600004FEA360645EAC0754FEA0752001B61EB18
:100610000201001C41F5801149084FEA3000001921
:10062000514132462B4603B0BDE8F04FFFF713BFF0
:100630000098012240000023D0EB020263EBE0733C
:10064000009821464FEAE074B8EB000061EB04012A
:10065000E9E783F000435BE781F0004158E72DE9CB
:10066000F04D81EA030404F0004B21F000451446EC
:100670004FF0000A23F0004150EA050220D054EA6E
:1006800001021DD0C5F30A570246C5F31303C1F397
:100690001300C1F30A5640F4801543F48013A7EB0E
:1006A0000608101BD64608F2FD3873EB050002D38E
:1006B00008F1010801E092185B41B8F1000F03DA7C
:1006C00000200146BDE8F08D00204FF48011064661
:1006D00084460EE0171B73EB050705D3121B63EB73
:1006E000050306434CEA010C49084FEA3000921812
:1006F0005B4150EA0107EDD152EA030012D082EAD1
:10070000040083EA0501084305D0101BAB4106D263
:100710000122002306E000224FF0004302E06FF0C8
:10072000010253101AEB06004CEB085110EB0A00C3
:1007300041EB0B01BDE8F04DFFF78DBEC1F30A524E
:10074000C1F3130140F2FF3341F480119A4202DAFF
:1007500000200146704740F233439A42A2F23342EE
:1007600002DC5242FFF78ABD00F02AB830B5041E01
:1007700071F1000404DB4FF00044404264EB0101DE
:10078000141E73F1000405DB1C464FF00043524277
:1007900063EB0403994208BF904230BD064C074DFD
:1007A00006E0E06840F0010394E807009847103441
:1007B000AC42F6D3FFF7ECFC4C0D03086C0D0308BC
:1007C000202A04DB203A00FA02F100207047914011
:1007D000C2F1200320FA03F3194390407047202A06
:1007E00006DBCB17203A41FA02F043EAE07306E059
:1007F00041FA02F3D040C2F1200291400843194669
:100800007047FEE77047704710B590F8211000243C
:10081000022903D004218163012418E001680A68D9
:1008200022F00E020A6001680A6822F001020A60E2
:1008300090F84020C36B012101FA02F25A6080F85F
:100840002110002180F82010416B01B1884720461B
:1008500010BD000070B5044600F0D8F80546601CD5
:1008600002D004480078044400F0D0F8401BA042B5
:10087000FAD370BD080000202DE9F84FDFF864B10D
:1008800000234FF0010C4FF0030A4FF00F090BF15A
:10089000040EA0E00CFA03F6324072D04C68022C31
:1008A00001D0122C0ED1DC0800EB8408D8F82040CF
:1008B0005D07EF0E09FA07F5AC430D69BD4025430E
:1008C000C8F8205007685D0091F804800AFA05F422
:1008D00008F00308A74308FA05F848EA0708C0F833
:1008E00000804F68012F05D0022F03D0112F01D0B7
:1008F000122F11D18768D1F80C80A74308FA05F8A8
:1009000048EA0708C0F808804768B7430E79C6F37D
:1009100000169E403E434660C668A6438C68AC40C5
:100920003443C4604C68E40054D52F4CA56945F0AD
:100930000105A561A46923F0030504F001040094F6
:100940002A4C2E19B4689D072F0F09FA07F5AC43FE
:10095000B0F1904F04D0264DA84203D1012512E0FA
:10096000002510E0234DA84201D102250BE0224DC5
:10097000A84201D1032506E0204DA84202D104255A
:1009800001E027E00525BD402543B560DBF80040C8
:100990005D464E689443F60300D514432C60DEF8A0
:1009A000004075464E689443B60300D514432C604E
:1009B0000C4D08352C684E689443F60200D514435C
:1009C0002C60084D0C352C684E689443B60200D557
:1009D00014432C605B1C0A6832FA03F47FF45AAFAC
:1009E000BDE8F88F00040140001002400000014003
:1009F0000004004800080048000C004800100048AF
:100A00000AB18161704781627047000001488068C7
:100A100070470000080000200248816802781144F5
:100A20008160704708000020074810B5016841F058
:100A300010010160032000F089F8002000F006F8A2
:100A400000F03EF8002010BD0020024000B5014635
:100A500087B000221C2000F059F81C2000F04AF852
:100A60001448C16941F00101C161C06905A900F0E4
:100A700001000690684600F005FA00F023FA0E49DE
:100A80004000B0FBF1F10D484FF08042491E02607A
:100A9000416040F2E7320021C0E90321816000F0AB
:100AA0007CFF10B1012007B000BD044800F091FFA9
:100AB000F9E700000010024040420F003C03002014
:100AC0000B4882B0816941F001018161816901F0C7
:100AD00001010091C16941F08051C161C0690022EA
:100AE00000F0805000900F21901E02B000F00EB870
:100AF0000010024000F01F020121914040098000D7
:100B000000F1E020C0F8001170470000F0B40E4B77
:100B10001B680C46C3F30223C3F10705042D00D95B
:100B20000425191D072901D2002300E0DB1E012640
:100B300006FA05F1491E214099409E40761E164056
:100B40003143F0BC01F0F0BA0CED00E0064900F0D2
:100B5000070208684FF6FF03184040EA0220034AE4
:100B600010430860704700000CED00E00000FA053B
:100B70002DE9F84F054600686E4CC0036FD5E0695B
:100B80000026C00008D4E06940F08050E061E069D0
:100B9000012600F08050009067480168C90512D412
:100BA0000168804641F480710160FFF72FFF07461E
:100BB00005E000BFFFF72AFFC01B642835D8D8F82E
:100BC0000000C005F6D5206A10F4407053D0A98803
:100BD00001F4407181424ED0206A4FF4803191FA85
:100BE000A1F2B2FA82F29700544A4FF0010817447A
:100BF00020F44070C7F8008491FAA1F1B1FA81F1B4
:100C000002EB81010023C1F800342062C00732D01A
:100C1000FFF7FCFE074641F2883A4FF0020907E071
:100C2000FFF7F4FEC11B514502D90320BDE8F88F40
:100C300099FAA9F1B1FA81F141F040014846B8EBC7
:100C4000511F01D121680CE090FAA0F1B1FA81F1B5
:100C500041F04001B0EB511F02D1216A01E015E0E3
:100C6000616A99FAA9F0B0FA80F000F01F0008FA62
:100C700000F21142D4D0206A696820F44070084321
:100C800020621EB1E06920F08050E0612878C00742
:100C900005D0206BA96820F0030008432063287862
:100CA000800705D5206BE96820F4403008432063B5
:100CB0002878400705D5206B296920F44020084397
:100CC00020632878800605D5206B696920F0100024
:100CD000084320632868800305D56068A96A20F46A
:100CE0008000084360602878400605D5206BA9691C
:100CF00020F02000084320632878000605D56068AE
:100D0000E96920F44040084360602888000505D563
:100D10006068296A20F078400843606028884005B0
:100D200005D5206B696A20F040000843206300204D
:100D30007CE70000001002400070004000004242CA
:100D40002DE9F0470F46050069D04A4E306800F0A3
:100D50000700B84209D2306820F0070038433060FD
:100D6000306800F00700B84259D12878424C80071B
:100D700005D56068A96820F0F00008436060287815
:100D8000C0073DD06968012001290DD0022923D078
:100D90005FF0020393FAA3F2B2FA82F242F0200269
:100DA000520904D0226803E04FF40033F2E7626A8C
:100DB00093FAA3F3B3FA83F303F01F0398400242BC
:100DC0002DD0606820F0030008436060FFF71EFE2E
:100DD000804641F288390CE04FF00073DAE700BF3B
:100DE000FFF714FEA0EB0801494502D90320BDE836
:100DF000F0876068696800F00C00B0EB810FEFD1FC
:100E0000306800F00700B8420BD9306820F00700C6
:100E100038433060306800F00700B84201D001204C
:100E2000E5E72878400705D56068E96820F4E060C8
:100E3000084360602878000706D56068296920F4B7
:100E4000605040EAC100606000F06CF86168F02218
:100E500092FAA2F201F0F001B2FA82F2D140074A0E
:100E6000515CC840064908600020FFF7EFFD0020F4
:100E7000BDE70000002002400010024000600008B2
:100E8000140000200F2202600C4A536803F0030391
:100E90004360536803F0F0038360536803F4E06336
:100EA000C36052684FF4E06303EAD202026104486F
:100EB000006800F007000860704700000010024062
:100EC0000020024008480949006849684FF4E06280
:100ED00092FAA2F201F4E061B2FA82F2D140044A3D
:100EE000515CC84070470000140000200010024010
:100EF0001060000808480949006849684FF46052CA
:100F000092FAA2F201F46051B2FA82F2D140044A9C
:100F1000515CC840704700001400002000100240DF
:100F200010600008144B10B55A68144802F00C0108
:100F300004291DD008291BD14FF4701494FAA4F48D
:100F400002F47011B4FA84F4E1400D4CDB6A615C88
:100F50000F2494FAA4F403F00F03B4FA84F4E340EA
:100F6000074C1034D203E35C03D5B0FBF3F04843E5
:100F700010BD0448484310BD0010024000127A0022
:100F8000E05F000800093D002DE9F84F040071D032
:100F90002078FB4DC0074FF0010625D06868770424
:100FA000C0F38100012807D06868C0F381000228DF
:100FB0001BD16868C00318D597FAA7F0B0FA80F083
:100FC00040F02000400901D0286800E0686A97FAE4
:100FD000A7F1B1FA81F101F01F0106FA01F108420F
:100FE00065D060680028D2D061E06068B0F5803FCD
:100FF0000BD010B1B0F5A02F17D0286820F48030A6
:101000002860286820F4802002E0286840F48030BE
:101010002860E86AA16820F00F000843E862606871
:1010200020B3FFF7F3FC80460AE0286840F48020F4
:101030002860EAE7FFF7EAFCA0EB0800642872D812
:1010400097FAA7F0B0FA80F040F02000400901D0F4
:10105000286800E0686A97FAA7F1B1FA81F101F017
:101060001F0106FA01F10842E4D020E0FFF7CEFCB0
:10107000804607E0C7E000BFFFF7C8FCA0EB080010
:101080006428DCD897FAA7F0B0FA80F040F020008E
:10109000400901D0286800E0686A97FAA7F1B1FA20
:1010A00081F101F01F0106FA01F10842E4D1207834
:1010B000DFF8D08280074FF0000A4FF0020759D5C1
:1010C00068684FF0F80B10F00C0F07D06868C0F399
:1010D000810002281BD16868C00318D497FAA7F0D2
:1010E000B0FA80F040F02000400901D0286800E00C
:1010F000686A97FAA7F1B1FA81F101F01F0106FAC7
:1011000001F108422BD0206901287CD127E0206919
:1011100088B396FAA6F0B0FA80F048F82060FFF79E
:1011200075FC814606E055E1FFF770FCA0EB090075
:10113000022884D897FAA7F0B0FA80F040F0200097
:10114000400901D0286800E0686A97FAA7F1B1FA6F
:1011500081F101F01F0106FA01F10842E4D028688C
:101160009BFAABF26169B2FA82F220F0F80091408A
:101170000843286025E0FFE796FAA6F1B1FA81F16D
:1011800048F821A0FFF742FC814605E0FFF73EFC4E
:10119000A0EB09000228CCD897FAA7F0B0FA80F0AB
:1011A00040F02000400901D0286800E0686A97FA02
:1011B000A7F1B1FA81F101F01F0106FA01F108422D
:1011C000E4D1207800076AD5A069A0B396FAA6F00A
:1011D000B0FA80F008EB8000C0F88064FFF716FCDE
:1011E000814605E0FFF712FCA0EB09000228A0D819
:1011F00097FAA7F0B0FA80F040F06000B6EB501F0D
:1012000002D128680CE077E197FAA7F0B0FA80F0F5
:1012100040F06000B7EB501F01D1286A00E0686A17
:1012200097FAA7F1B1FA81F101F01F0106FA01F274
:101230001042D7D033E0FFE796FAA6F0B0FA80F07C
:1012400008EB8000C0F880A4FFF7E0FB814605E0D2
:10125000FFF7DCFBA0EB090002289CD897FAA7F067
:10126000B0FA80F040F06000B6EB501F01D1286862
:101270000BE097FAA7F0B0FA80F040F06000B7EB0F
:10128000501F01D1286A00E0686A97FAA7F1B1FA05
:1012900081F101F01F0106FA01F21042D8D1207845
:1012A000400774D5E8694FF00009C00009D4E86927
:1012B00040F08050E861E8694FF0010900F080508B
:1012C000009031480168C90512D4016841F4807169
:1012D0000160FFF79BFB834606E000BFFFF796FB2C
:1012E000A0EB0B00642875D827480068C005F5D529
:1012F000E06801280AD008B1052811D0286A20F03A
:1013000001002862286A20F0040002E0286A40F008
:1013100001002862E068C8B3FFF778FB83460DE060
:10132000286A40F004002862F0E700BFFFF76EFB78
:10133000A0EB0B0141F2883081424BD897FAA7F01D
:10134000B0FA80F040F04000B6EB501F01D12868A1
:101350000BE097FAA7F0B0FA80F040F04000B7EB4E
:10136000501F01D1286A00E0686A97FAA7F1B1FA24
:1013700081F101F01F0106FA01F21042D6D035E0EA
:1013800000100240000042420070004000E034E0E3
:10139000FFF73CFB834607E0FFF738FBA0EB0B01B0
:1013A00041F28830814215D897FAA7F0B0FA80F060
:1013B00040F04000B6EB501F01D128680CE097FACE
:1013C000A7F0B0FA80F040F04000B7EB501F02D118
:1013D000286A01E083E0686A97FAA7F1B1FA81F11F
:1013E00001F01F0106FA01F21042D5D1B9F1000F48
:1013F00003D0E86920F08050E861E06980B3696853
:10140000C1F38101022977D04FF080714F0002288B
:1014100009D091FAA1F0B0FA80F048F820A0FFF7C7
:10142000F5FA04465EE050468A4691FAA1F1B1FA17
:1014300081F1C14648F82100FFF7E8FA804605E04F
:10144000FFF7E4FAA0EB0800022848D897FAA7F0C3
:10145000B0FA80F040F02000400902D0286801E096
:1014600056E0686A97FAA7F1B1FA81F101F01F011D
:1014700006FA01F10842E3D1D4E90810084369688B
:1014800021F47411084368609AFAAAF0B0FA80F067
:1014900049F82060FFF7BAFA044604E0FFF7B6FA0D
:1014A000001B02281BD897FAA7F0B0FA80F040F092
:1014B0002000400901D0286800E0686A97FAA7F187
:1014C000B1FA81F101F01F0106FA01F10842E5D0FD
:1014D0001EE000BFFFF79AFA001B022802D9032082
:1014E000BDE8F88F97FAA7F0B0FA80F040F020003E
:1014F000400902D0286801E00CE0686A97FAA7F179
:10150000B1FA81F101F01F0106FA01F10842E1D1BF
:101510000020E5E70120E3E770B5040002D0607F1A
:1015200010B106E0012070BD00202077204600F0B9
:1015300049F8022060772168CA2048622168532058
:101540004862204600F000FEFF25042618BB2068F4
:1015500081681B4A11408160216888686268104375
:10156000D4E904231A43104388602168E0680861C5
:1015700020680169228941EA024101612068C1684D
:1015800021F08001C16020688068800607D4204671
:1015900000F02CF818B1206845626677C2E7206831
:1015A000016C21F4802101642068016CA26911435F
:1015B00001642068456201206077002070BD000052
:1015C000BFFF8FFF0068074988420AD10120C1038D
:1015D00091FAA1F1044AB1FA81F102EB8101C1F85B
:1015E00000047047002800400000424270B50446E5
:1015F0000068C16821F0A001C160FFF707FA054645
:101600004FF47A7607E000BFFFF700FA401BB042C4
:1016100001D9032070BD2068C0688006F4D5002081
:1016200070BD2DE9F041040005D00025A56294F8B5
:101630005D0018B107E00120BDE8F08184F85C503E
:10164000204600F049F8022384F85D3020680168E4
:1016500021F040010160E0684FF4E066B04201D93A
:10166000002101E04FF48051B0F5706F02D0B0421C
:1016700000D0A562276B012227B9B04201D92363AC
:1016800000E02263D4E901031843D4E9043633436C
:101690001843238B03F400731843E3691843236A48
:1016A0001843A36A184323681860636B606AA669CD
:1016B00018430427E36807EA1646334318430843F0
:1016C000216848602068C16921F40061C161256614
:1016D00084F85D200020AFE7F0B587B00446142100
:1016E0006846FEF7F4FD1949206888422BD1184856
:1016F000816941F480518161816901F480510591D2
:10170000416941F400314161416901F400310591C1
:10171000416941F4802141614069022400F4802044
:10172000059060200025032605278DE8F100694615
:101730004FF09040FFF7A0F801208DE8F1006946D6
:101740000448FFF799F807B0F0BD000000300140F1
:1017500000100240000400482DE9F05F044690F8B4
:101760005C0000260A9F994692460D464FF00108FC
:1017700001280ED0012084F85C00FFF747F983466A
:1017800094F85D00616801280CD0B1F5827F07D123
:1017900002E00220BDE8F09FA16809B9042801D049
:1017A0000226F0E0002D79D0BAF1000FFBD0B9F19C
:1017B000000FF8D094F85D00042802D0052084F8CA
:1017C0005D0000202066C4F840A0A4F84690A4F86C
:1017D0004490A563A4F83E90A4F83C90E064206592
:1017E000E0684FF4E061884203D8B4F8460001286D
:1017F00004D92068426822F4805203E020684268DD
:1018000042F48052426020680268520603D40268A3
:1018100042F040020260E068884260683FD910B13F
:10182000E08F012832D1216835F8020BC860E08FC3
:10183000401EE0872AE000BFB8F1000F0DD0E08F16
:1018400058B120688168890707D535F8021BC16047
:10185000E08F401EE0874FF00008B4F8460068B102
:1018600020688168C90709D0C0682AF8020BB4F85B
:101870004600401EA4F846004FF00108781C05D031
:10188000FFF7C4F8A0EB0B00B84268D2E08F002845
:10189000D2D1B4F846000028CED169E072E010B190
:1018A000E08F01285DD1E08F012806D9216835F845
:1018B000020BC860E08F801E05E0206815F8011B50
:1018C0000173E08F401EE0874BE000BFB8F1000FCE
:1018D00016D0E08FA0B120688168890710D5E18F0C
:1018E000012905D935F8021BC160E08F801E04E094
:1018F00015F8011B0173E08F401EE0874FF00008D0
:10190000B4F8460018B320688168C9071FD0B4F83E
:101910004610012911D9C0682AF8020BB4F8460014
:10192000801EA4F84600B4F8460001280DD82068AF
:10193000416841F48051416007E0017B0AF8011BD6
:10194000B4F84600401EA4F846004FF00108781C89
:1019500007D0FFF75BF8A0EB0B00B84201D30326DA
:1019600011E0E08F0028B1D1B4F846000028ADD1D5
:101970005A463946204600F0CBFE08B120202066AA
:10198000206E00B10126012084F85D00002084F85B
:101990005C003046FEE67047704710B5040003D087
:1019A00094F83D0010B107E0012010BD002084F83C
:1019B0003C00204600F00CF8022084F83D00211D78
:1019C000206800F0EDFF012084F83D00002010BDEC
:1019D00070470168CA6842F00102CA600068016885
:1019E00041F00101016000207047704770B5044666
:1019F000006801694FF00005C943890715D4C16823
:101A0000C943890711D4E91E0161012020772068AC
:101A100080698007204602D0FFF7E7FF04E000F06E
:101A200098F8204600F096F8257720680169C943A8
:101A3000490717D4C168C943490713D46FF004019B
:101A40000161022020772068806910F4407F2046E1
:101A500002D0FFF7CAFF04E000F07BF8204600F058
:101A600079F8257720680169C943090716D4C16848
:101A7000C943090712D46FF00801016104202077DF
:101A80002068C0698007204602D0FFF7AEFF04E05F
:101A900000F05FF8204600F05DF8257720680169C6
:101AA000C943C90617D4C168C943C90613D46FF026
:101AB00010010161082020772068C06910F4407F80
:101AC000204602D0FFF791FF04E000F042F82046E4
:101AD00000F040F8257720680169C943C90708D19B
:101AE000C168C943C90704D1891E0161204600F0BD
:101AF00032F820680169C943090609D4C168C9439D
:101B0000090605D46FF0800101612046FFF743FF0D
:101B100020680169C943490609D4C168C943490617
:101B200005D46FF040010161204600F01BF82068E9
:101B30000169C94389060BD4C168C943890607D422
:101B40006FF0200101612046BDE87040FFF724BF1F
:101B500070BD704770470068B0F1804F01D1FEF74B
:101B60005BBF704770477047704710F8691F407837
:101B70000843704770B503680446D869196810F0C7
:101B80000F0508D1820606D58A0604D52046BDE891
:101B9000704001F020B89A68002D66D002F001056F
:101BA00001F490762E4360D0C60707D0CE0505D548
:101BB00001261E62E36E43F00103E366830708D546
:101BC000D30706D0266802233362E36E43F0040392
:101BD000E366430708D5D20706D0236804221A62B9
:101BE000E26E42F00202E26602070AD501F020022C
:101BF0002A4306D0236808221A62E26E42F00802E5
:101C0000E266E26E002A29D0800604D5880602D555
:101C1000204600F0E0FFE06E000703D420688068F3
:101C200040061CD5204600F0BBFF206881684906AD
:101C300011D5816821F040018160606E58B11C4966
:101C40004163606EFEF7E0FD002807D0606E416BD7
:101C5000BDE8704008472046FFF786FF70BD20466C
:101C6000FFF782FF0020E06670BDC5020ED552026C
:101C70000CD54FF480101862202084F8690084F895
:101C80006A002046BDE87040FFF76DBF020606D52A
:101C90000A0604D52046BDE8704001F09BB8400616
:101CA000E2D54806E0D52046BDE8704000F086BF8A
:101CB0008D2B000810B5040003D094F8690010B112
:101CC00007E0012010BD002084F86800204600F0E5
:101CD00027F8242084F869002068016821F00101B8
:101CE0000160204600F0B2FF0128EBD0606A10B11D
:101CF000204600F0B9FE2068416821F4904141601F
:101D00002068816821F02A0181602068016841F023
:101D1000010101602046BDE8104000F009BF00004D
:101D2000F0B587B0044614216846FEF7D0FA444B5C
:101D30002268444902270124032507264FF09040DA
:101D40009A421FD18A6942F480428A618A6902F408
:101D5000804205924A6942F400324A61496902AA06
:101D600001F4003105916902CDE9001782E87000A5
:101D70006946FEF781FD002205212520FEF7C6FEFB
:101D8000252021E0304B9A4222D1CA6942F4003228
:101D9000CA61CA6902F4003205924A6942F400320B
:101DA0004A61496902AA01F4003105910C21CDE98B
:101DB000001782E870006946FEF75EFD00220521EB
:101DC0002620FEF7A3FE2620FEF794FE07B0F0BD06
:101DD0001E488242FAD1C86940F48020C861C869AF
:101DE00000F480200590486940F4801048614869FB
:101DF00000F480100590486940F4802048614869EB
:101E0000694600F4802005909015CDE9000702AAEC
:101E10000F4882E87000FEF72FFD4FF40070CDE907
:101E2000000702AA694682E870000A48FEF724FD0E
:101E3000002205212720FEF769FE2720C4E70000C5
:101E400000380140001002400044004000480040BB
:101E5000000C00480004004890F86A30202B36D16E
:101E600099B192B190F86830012B30D0012380F8FD
:101E700068304165A0F85820A0F85A208168FF22F8
:101E8000B1F5805F03D039B10BE0012070470169E3
:101E9000D1B940F2FF1102E00169A9B17F21A0F898
:101EA0005C100021C166222280F86A2080F8681048
:101EB00001688A6842F001028A600068016841F4A2
:101EC0009071016000207047A0F85C20E9E70220D3
:101ED0007047000030B50068114988420CD11148A4
:101EE00041880A0408D402464C0412784FF00003DB
:101EF00006D50A2A01D0438030BD41F400410DE0EF
:101F00000D2A09D0C1F30D04074D491C89B22A5589
:101F10004180C729EFD830BD41F48041418030BDB8
:101F20000044004000000020240100207047000011
:101F300003A35D2207A1042003F040F8FEE70000A0
:101F4000486172644661756C745F48616E646C656B
:101F5000720000002E2E2F5372632F73746D333274
:101F6000663378785F69742E6300000010B586B020
:101F700014216846FEF7ABF91948416941F4800124
:101F80004161416901F480010591416941F40031E9
:101F90004161416901F400310591416941F48021B9
:101FA0004161416901F480210591416941F4801149
:101FB000416140690B4C00F4801005900022022121
:101FC0002046FEF71DFD02200121CDE9000103207E
:101FD000CDE9021069462046FEF74EFC06B010BD62
:101FE00000100240000400480C4810B50A49016086
:101FF00000217D22C0E901124FF4A072C0E9032143
:1020000041618161FFF788FA002803D0BDE81040E4
:10201000FEF7F9BB10BD000000280040A000002022
:10202000124810B5104901604FF4827141600021DF
:102030004FF4E062C0E90212022202610122426111
:10204000520282613822C0E9072107224162C0E9B9
:102050000A1201634163FFF7E4FA002803D0BDE8E8
:102060001040FEF7D0BB10BD00300140C000002082
:102070000D4810B50B4901604FF4E131416000217A
:1020800081600C22C160C0E904128161C1610162FA
:102090004162FFF70FFE002803D0BDE81040FEF7B5
:1020A000B2BB10BD00380140EC0100200D4810B556
:1020B0000B4901604FF4E1314160002181600C2245
:1020C000C160C0E904128161C16101624162FFF730
:1020D000F1FD002803D0BDE81040FEF794BB10BD11
:1020E000004400405C0200200D4810B50B4901601F
:1020F0004FF4E1314160002181600C22C160C0E9F0
:1021000004128161C16101624162FFF7D3FD0028C1
:1021100003D0BDE81040FEF776BB10BD004800407C
:10212000CC020020FEE770470907090E002806DAF6
:1021300000F00F0000F1E02080F8141D704700F15E
:10214000E02080F80014704770B504460068C1684C
:10215000490614D44FF0FF31C160FEF757FC054625
:102160004FF47A7607E000BFFEF750FC401BB04208
:1021700001D9032070BD2068C0684006F4D5002056
:1021800070BD0000044B08B1012200E000220221D2
:102190001846FEF735BC00000004004810B50120C9
:1021A000FFF7F0FFBDE81040FF2000F087BA70B5E0
:1021B000054601220021092000F0B4F9040004D1F1
:1021C0001021284600F036F90446FFF7E7FF0CB16E
:1021D000012070BD002070BD70B505464FF6FF743C
:1021E00001E0641EA4B2FF2000F060F9A84202D012
:1021F000002CF6D102E00CB1002070BDFF2070BDB4
:102200001FB56846FFF7D3FF10B1002004B010BD22
:102210009DF800100120B0EB911F09D19DF8082016
:102220009DF8091000EB0220084400048009EDE746
:102230009DF805009DF80A1000F00F0000EBD1108A
:102240009DF809109DF8072001F0030100EB410102
:102250009DF80800800900EB82009DF8062002F03E
:10226000030200EB8220401CC91F8840CEE700001B
:102270002DE9F84300F0F8F8382000F02FFA002498
:10228000FF2000F01BFA641CA4B20A2CF8D314241B
:1022900000219522084600F045F90546012802D0A4
:1022A000641EA4B2F4D2474E0027012D37707AD1B4
:1022B00087224FF4D571082000F034F94FF6FE78EC
:1022C00001281ED001220021372000F02BF9012225
:1022D0000021292000F026F901284FD80220307073
:1022E000444601220021372000F01CF90122002180
:1022F000292000F017F905004DD0641EA4B2F0D2D9
:1023000049E000246F46FF2000F0D0F83855641CE7
:10231000A4B2042CF7D39DF80200012843D19DF804
:102320000300AA283FD144464FF0804801220021F3
:10233000372000F0F7F801224146292000F0F2F89A
:10234000050002D0641EA4B2F0D2B4B10122002173
:102350003A2000F0E7F880B90024FF2000F0A6F84A
:102360003855641CA4B2042CF7D39DF80000400635
:1023700001D5062000E00420307014E00120307008
:10238000444601220021104600F0CCF8050002D09E
:10239000641EA4B2F5D22CB101225102102000F02B
:1023A000C1F800B13770FFF7F9FE002000F096F990
:1023B000307810B10020BDE8F8830DB12846FAE767
:1023C000AA20F8E7900000202DE9F04106461848C1
:1023D00015460078062800D049024FF40077012DF9
:1023E0004FF0010219D0122000F09CF83946304617
:1023F00000F020F86D1E044606F5007615F0FF0586
:1024000001D0002CF2D0012200210C2000F08AF82B
:10241000FFF7C4FE2046BDE8F081112000F082F8ED
:102420000400F5D13946304600F004F80446EFE7E1
:102430009000002070B504460D46FE20FFF7CCFE4C
:1024400030B1012070BD00BF00F038F904F8010B75
:102450006D1EADB24FF0FF00F6D200F02FF9FF2055
:1024600000F02CF9002070BD0E4800B5416987B01E
:1024700041F4802141614069694600F48020059063
:102480000220009001200190029003200390064852
:10249000FEF7F2F9FFF7C4FD0120FFF773FE07B066
:1024A00000BD0000001002400004004800F006B922
:1024B000002000F013B9382000F010B910B500204A
:1024C000FFF760FE00F05DF8002802D0FFF766FE1F
:1024D000012010BD70B50C46054600F052F808B159
:1024E000012070BD204600F0E9F8FD2C18D0002432
:1024F0004FF40076285D00F0E1F8641CA4B2B44209
:10250000F8D3FF2000F0DAF8FF2000F0D7F8FF2022
:10251000FFF7CCFF00F01F00052801D0022070BD9E
:10252000002070BD70B515460C460646FFF736FE16
:10253000FFF7C4FF08B1FF2070BD46F0400000F077
:10254000BDF8200E00F0BAF8C4F3074000F0B6F86A
:10255000C4F3072000F0B2F8E0B200F0AFF828466C
:1025600000F0ACF80C2E02D1FF2000F0A7F81F24D9
:10257000FF20FFF79BFF0106DED5641EE4B2F7D211
:1025800070BD70B500246FF07F45FF20FFF78EFF10
:10259000FF2804D0641CAC42F7D3012070BD00209A
:1025A00070BD000070B506461D4815460C46007803
:1025B000062800D04C02012D13D0012809D0012299
:1025C00000213720FFF7AEFF012229461720FFF731
:1025D000A9FF012221461920FFF7A4FF04000AD019
:1025E0001AE0012221461820FFF79CFF040013D1B6
:1025F000FE2130460DE0FC213046FFF76BFF6D1EDB
:1026000006F5007615F0FF0501D00028F3D0FD2176
:102610000020FFF75FFF0446FFF7C0FD204670BDB6
:102620009000002038B54FF47A7408E00EA32C22F5
:1026300013A1042002F0C2FC2046FEF70BF9FFF7BD
:1026400017FE0028F2D116A32F220DA1022002F0BE
:10265000B5FCFFF7D5FDC00A009015A3312208A1F3
:10266000022002F0ABFC38BD20646F6E2774206638
:10267000696E64205344206361726420000000008E
:102680002E2E5C6170706C69636174696F6E206C72
:10269000617965725C4D4D435F53442E43000000E9
:1026A0002053442020636865636B20206F6B00001B
:1026B00020534420203A25640000000001B582B078
:1026C0004FF47A700090012301AA02A90248FFF793
:1026D00043F89DF804000EBDC00000200B4910B562
:1026E0000A68136823F0400313600A6813684FF602
:1026F000C774234013600A681368034313600868B3
:10270000016841F04001016010BD0000C0000020E0
:10271000F8B515460E460B460092044600224FF4CB
:10272000C05100F019F888B93346002280212046B4
:10273000009500F060F848B9334600224FF4C061BC
:102740002046009500F008F8002804D0206E40F0E4
:10275000200020660320F8BD2DE9F8431D461746EA
:102760000E4604464FF4C068DDF820903CE0464534
:1027700005D127B9007B8DF800009DF80000681C8A
:1027800032D02DB1FEF742F9A0EB0900A8422BD3BD
:102790002068416821F0E00141606068B0F5827F07
:1027A0000BD1A068B0F5004F02D0B0F5806F04D116
:1027B0002068016821F040010160A06AB0F5005F67
:1027C00009D12068016821F4005101602068016886
:1027D00041F400510160012084F85D00002084F87C
:1027E0005C000320BDE8F883206881683140B9426D
:1027F000BDD10020F6E72DE9F0411D4617460E46F3
:102800000446DDF8188034E0681C32D02DB1FEF7A4
:10281000FDF8A0EB0800A8422BD32068416821F006
:10282000E00141606068B0F5827F0BD1A068B0F52F
:10283000004F02D0B0F5806F04D12068016821F00C
:1028400040010160A06AB0F5005F09D1206801680D
:1028500021F4005101602068016841F400510160D9
:10286000012084F85D00002084F85C000320BDE8AE
:10287000F0812068806836EA000004D00020B84269
:10288000C2D10020F3E70120F9E7000010B5502085
:1028900080F31188BFF34F8FBFF36F8F03F0DAFA25
:1028A00018B104494FF080500860002080F311886F
:1028B00010BD000004ED00E030B59BB02821684653
:1028C000FDF705FD142115A8FDF701FD2C210AA82F
:1028D000FDF7FDFC0920012100904FF48030002419
:1028E00004910691CDE901040225CDE907504FF48A
:1028F000E01009906846FEF747FB0F20CDE915056B
:102900006802CDE91740022115A81994FEF718FABC
:1029100005480A90C0110B900C940D940E940AA8CF
:10292000FEF726F91BB030BD07000100144801680E
:1029300041F4700101601348016841F00101016038
:102940004168114A114041600168104A114001601C
:10295000016821F480210160416821F4FE01416099
:10296000C16A21F00F01C162016B094A1140016384
:10297000002181600249C00380390860704700006F
:1029800088ED00E0001002400CC07FF8FFFFF6FE6B
:10299000CCFC00FF0148FFF729B800003C030020F1
:1029A0002DE9F04702684FF0804A254D254E264F0D
:1029B000DFF898C0264B274CDFF89C90504507D095
:1029C000A84205D0B04203D0B84201D0604506D13C
:1029D00022F070084A68504542EA080216D0A84220
:1029E00014D0B04212D0B84210D01C4DA8420DD025
:1029F0001B4DA8420AD01B4DA84207D0984205D0D3
:102A0000A04203D0484501D0604503D122F440756F
:102A1000CA682A434D6922F080022A4302608A680C
:102A2000C2620A688262984203D0A04201D048453F
:102A300001D10969016301214161BDE8F08700000E
:102A40000004004000080040000C0040005C014011
:102A5000004001400044014000480140001800408F
:102A6000001C00400020004090F82410C90706D048
:102A700001684A68836A22F400321A434A6090F877
:102A80002410890706D501684A68C36A22F4803297
:102A90001A434A6090F82410490706D501684A682D
:102AA000036B22F480221A434A6090F8241009072D
:102AB00006D501684A68436B22F400421A434A6013
:102AC00090F82410C90606D501688A68836B22F441
:102AD00080521A438A6090F82410890606D501684E
:102AE0008A68C36B22F400521A438A6090F824105B
:102AF000490611D501684A68036C22F480121A4312
:102B00004A60016CB1F5801F06D101684A68436CC8
:102B100022F4C0021A434A6090F82410090606D530
:102B200001684A68806C22F4002202434A607047C0
:102B3000F8B500260446C666FDF768FF054620681E
:102B400000686FF07E47000708D52B4600224FF43F
:102B500000112046009700F06FF960B92068006806
:102B600040070AD52B4600224FF4800120460097EB
:102B700000F062F908B10320F8BD202084F8690054
:102B800084F86A0084F868600020F8BD10B5406AD7
:102B90000021A0F85A10A0F85210FEF7E5FF10BD72
:102BA00001680A6822F490720A6001688A6822F05B
:102BB00001028A60202180F86A10704710B5016810
:102BC0000A6822F040020A60202180F86910FFF7AD
:102BD000ADF9002010BD10B5B0F85C2090F86A3057
:102BE0000168222B05D0886940F008008861022026
:102BF00010BD898C8368B3F5805F01D103696BB127
:102C00001140426D531C43651170B0F85A10491EB3
:102C10000904090CA0F85A1007D015E0436D1140C3
:102C20001980416D891C4165EFE701680A6822F44B
:102C300090720A6001688A6822F001028A6020218D
:102C400080F86A10FFF746F9002010BD2DE9F04129
:102C5000044610202369A268E6691A4363690021CB
:102C600033431A4323680D461E6849F20C67BE437E
:102C700016431E6022685368E66823F440533343CA
:102C80005360236AA2691A4323689E6826F430665B
:102C900016439E60494F2268494B0603BA420CD145
:102CA0001B6B13F0030306D0012B2BD0022B2BD070
:102CB000032B2AD124E0012027E0424FBA420CD155
:102CC0001B6B13F4403319D0B3421BD0B3F5003F54
:102CD0001AD0B3F5403F18D112E03B4FBA4214D19D
:102CE0001B6B13F4402309D0B3F5802F0AD0B3F542
:102CF000002F09D0B3F5402F07D101E0002004E0F8
:102D0000022002E0042000E00820E7694FF40043BD
:102D10009F4226D109281DD2DFE800F00508121CC9
:102D2000151C1C1C1800FEF7CDF801E0FEF7E2F8B8
:102D30004100606801EB5001B1FBF0F081B20AE0A4
:102D400022496068F6E7FEF7EDF8F1E7606806EB08
:102D50005001F1E7012521F00F00C1F342010843C2
:102D60001CE0092825D2DFE800F005080B24102418
:102D700024241C00FEF7A6F809E0FEF7BBF806E0E5
:102D80001349606801EB50010EE0FEF7CBF80146F5
:102D9000606801EB5001B1FBF0F080B22168C860BF
:102DA00008E0606803EB5001B1FBF0F080B2D06046
:102DB00000E001252846BDE8F08100000038014010
:102DC0000010024000440040004800400024F4008D
:102DD00000127A0090F86910212901D00220704772
:102DE000B0F8521021B18168B1F5805F0BD00CE0D2
:102DF00001680A6822F080020A600068016841F0F8
:102E0000400101600CE0016961B1C16C4A1CC264FF
:102E100002680978A2F8281030F8521F491E018074
:102E200000207047C16C02680988C1F30801118550
:102E3000C16C891CC164EFE72DE9F0419846174643
:102E40000E460446069D1DE0681C1BD02DB1FDF703
:102E5000DDFDA0EB0800A84214D92068016821F428
:102E6000D07101602068816821F00101816020201B
:102E700084F8690084F86A00002084F86800032060
:102E8000BDE8F0812068C06936EA000004D0002067
:102E9000B842D9D00020F3E70120F9E70148FEF756
:102EA00069BE0000EC01002010B50848FEF762FE84
:102EB0000648FEF75AFE2028FAD1012204490348A9
:102EC000FEF7CAFF0028F8D110BD00005C02002008
:102ED000000000200148FEF74DBE0000CC0200209B
:102EE000FEE700000FB4054B10B503A9044A029891
:102EF00000F0ECF810BC5DF814FB0000654E000813
:102F00000400002037B514460846064B6A462146A1
:102F100000F0DCF804466946002000F06EFC204614
:102F20003EBD0000FB37000802E008C8121F08C1C0
:102F3000002AFAD170477047002001E001C1121F3A
:102F4000002AFBD1704700002DE9FF5F82B000210D
:102F5000DDE90430020DDDF840B0034318D044F63B
:102F60001050A2F2FF3242431514119801281FD0CD
:102F7000A5EB0B00401C5FEA000A4FF000064E4F25
:102F8000DFF83891B046504615D5CAF1000413E079
:102F9000119801244AA3012801D16FEA0B0102987C
:102FA000119AC0E90031C0E9024206B0BDE8F09FC5
:102FB000CBF10000DFE704460021404A491842EB0C
:102FC0000450CDE9001012E0E00707D032463B463E
:102FD00040464946FDF786F98046894632463B46DB
:102FE00010461946FDF77EF906460F466410002C80
:102FF000EAD1DDE90401DDE90023BAF1000F06DAC8
:10300000FDF770F942464B46FDF76CF905E0FDF718
:1030100026FB42464B46FDF722FB04460E460022A5
:10302000284BFDF7A3FB03D84FF0FF30014607E024
:103030000022254B20463146FDF76AFAFDF77EFB5C
:10304000102409E0002C0ADB0A220023FDF7D2F944
:10305000039B30321A55641E50EA0102F2D1641CFF
:10306000039AC4F111031444119A012A03D00122D6
:1030700008430DD10AE0084304D000204FF0110BA3
:10308000119072E7A3EB0B056D1E0DE05B4504DDAF
:103090004FF0000205F1010504E003DA4FF00002F1
:1030A000A5F10105002AECD002981199C0E902317E
:1030B000C0E9004579E70000000014400000F03F3F
:1030C000300000000000F0430000E03F2DE9FF4F1A
:1030D00095B09B468946064600250FE2252877D104
:1030E00000242746F84A0121059400E0044316F81D
:1030F000013F203B01FA03F01042F7D130782A2833
:1031000011D06FF02F033078A0F13002092A16D8C1
:10311000059A44F0020402EB820203EB42021044DF
:10312000761C0590EFE759F8042B0592002A03DA84
:10313000504244F40054059044F00204761C307868
:103140002E2816D116F8010F44F004042A280DD0B9
:103150006FF02F023078A0F13003092B09D807EB6C
:10316000870302EB4303C718761CF3E759F8047B87
:10317000761C30786C280FD006DC4C2817D06828D5
:103180000DD06A2814D104E0742810D07A280FD109
:103190000DE044F400140AE044F4801401E044F427
:1031A00040147278824202D104F58014761C761C99
:1031B000307866280BD013DC582877D009DC00283B
:1031C00075D04528F6D04628F4D047281AD19DE17D
:1031D00018E0632835D0642879D0652812D195E1AC
:1031E000702873D008DC6728F1D069286FD06E286A
:1031F0000DD06F2806D1B5E073282CD0752875D076
:10320000782874D05A46179990476D1C75E1C4F31D
:103210000250022809D003280DD0D9F80010042844
:103220000DD00D6009F1040967E1D9F80010EA1723
:10323000C1E90052F6E7D9F800100D80F2E70D70F1
:10324000F0E719F8041B8DF8001000208DF801003C
:10325000EA46012003E059F804AB4FF0FF30610764
:103260004FF0000102D40DE008F101018846B94297
:103270000FDA8045F8DB1AF808100029F4D108E0CD
:1032800008F1010188468142FADB1AF8081000298A
:10329000F6D105985B46A0EB080721463846179AF9
:1032A00000F094FA284400EB080507E04DE029E11E
:1032B0000DE01AF8010B5A4617999047B8F101082A
:1032C000F7D25B4621463846179A13E142E00A22BC
:1032D0000092C4F302524FF0000A022A08D059F8B3
:1032E00004CB032A4FEAEC710AD00DE029E02AE072
:1032F00009F1070121F00702F2E802C1914609E055
:103300000FFA8CFC4FEAEC71042A03D14FFA8CFCC3
:103310004FEAEC71002907DA0A460021DCF1000CC3
:1033200061EB02012D2202E0220504D52B228DF84B
:103330000420012203E0E20701D02022F7E79046B3
:1033400059E00A2102E010220DE010214FF0000A9E
:1033500000910BE010224FF0000A44F0040408270B
:10336000009203E008224FF0000A0092C4F30252D8
:10337000022A05D059F804CB0021032A08D009E01D
:1033800009F1070121F00702F2E802C1914605E0C8
:103390001FFA8CFC042A01D10CF0FF0C4FF000083E
:1033A000220728D5702806D0009B83F0100353EA2B
:1033B0000A0305D00EE040228DF80420012208E027
:1033C0005CEA010206D030228DF804208DF8050059
:1033D00002229046009B83F0080353EA0A030AD1B5
:1033E0005CEA010201D1620705D530228DF8042084
:1033F0004FF001087F1E582804D034A003900EA877
:1034000002900DE036A0F9E753466046009AFCF7BB
:10341000F1FF84460398825C0298401E029002707D
:103420005CEA0100F0D1029806A9081A00F1200A0E
:10343000600702D524F4803400E00127574502DDFF
:10344000A7EB0A0000E0002000EB0A0100900598BD
:103450004144401A0590E00306D45B462146179A82
:10346000059800F0B3F90544002706E001A85A4684
:10347000C05D179990476D1C7F1C4745F6DBE00344
:103480000CD55B462146179A059800F09FF9054434
:1034900004E030205A46179990476D1C0099481E49
:1034A00000900029F5DC08E0029802995A4600785D
:1034B000491C0291179990476D1CBAF10001AAF1BD
:1034C000010AF1DC65E100000928010030313233E6
:1034D0003435363738396162636465660000000050
:1034E000303132333435363738394142434445463A
:1034F0000000000000F058F90544761C30780028E0
:103500007FF4ECAD19B02846BDE8F08F620700D417
:10351000062709F1070222F0070CFCE80223E14626
:1035200003F000485FEA080C02D00FF2702C0DE0A7
:103530005FEA045C02D50FF2682C07E05FEAC47C06
:1035400002D00FF2602C01E0AFF2700C4FF0FF38A8
:1035500023F00043CDF850C065280CD006DC452888
:1035600009D046281DD047283DD13DE0662818D017
:1035700067287ED138E00021112F01DB112000E007
:10358000781CCDE9000106A90EA8FFF7DDFCDDE9F6
:103590000F010E9A03910021009207F1010A049194
:1035A0004DE04FF000400097CDE9011006A90EA8AC
:1035B000FFF7CAFCDDE90F0203920E9B119900226E
:1035C000DDF80CA00093049211B9791C00EB010AFC
:1035D000B7EB0A0004D4C0F1FF3007F1010A0490F0
:1035E000AAEB0700019044E0012F00DA0127002137
:1035F000112F01DD112000E03846CDE9000106A9B8
:103600000EA8FFF7A1FCDDE90F010E9A039100213E
:1036100004910092BA4621070CD40399514500DA6F
:103620008A46BAF1010F05DD009AAAF10101515C49
:10363000302908D0B84202DA10F1040F06DA01216D
:10364000CDE9011015E0AAF10101E9E7002805DC48
:10365000049901440491AAEB000102E0411C514588
:1036600000DD8A460499401A401C01904FF000404A
:103670000290200704D40198504501DBCDF8048066
:1036800000208DF84F0002980DF14F07B0F1004F68
:1036900025D02B200E9002984FF0020800280CDA5B
:1036A000404202902D200E9007E00A210298FCF77C
:1036B0008BFE3031029007F8011DB8F10001A8F12E
:1036C0000108F2DC02980028EFD1791E0E980870EC
:1036D000307800F0200040F0450007F8020D12A8F5
:1036E000C01B00F107081498007800B1012000EB1E
:1036F0000A01019801EBE07105984144401A401E0F
:103700000590E00306D45B462146179A059800F021
:103710005DF805441498007818B15A4617999047F7
:103720006D1CE00324D55B462146179A059800F0EE
:103730004DF805441CE00498002807DBDDE903018F
:10374000884203DD0098405C179901E0179930200A
:103750005A469047049805F10105401C04900198D1
:10376000401E019004D12E205A46179990476D1C97
:10377000BAF10001AAF1010ADDDC05E017F8010B3E
:103780005A46179990476D1CB8F10001A8F101083D
:10379000F4DC5B462146179A0598ABE62D00000045
:1037A0002B000000200000002DE9F0410446002518
:1037B0001E461746880404D405E039462020B04749
:1037C0006D1C641EF9D52846BDE8F0812DE9F04155
:1037D000044600251E469046C80301D5302700E068
:1037E0002027880404D505E041463846B0476D1CC3
:1037F000641EF9D52846BDE8F0810A68531C0B60A9
:103800001070704710B504460A464078012304F151
:10381000320100F066FD08B1032010BDB4F830029B
:10382000A0F52A41553901D0022010BD94F8680056
:10383000B4F8691040EA01210848B0EB012F08D024
:1038400094F88410B4F8852041EA0221B0EB012FEE
:1038500001D1002010BD012010BD000000464154E0
:1038600000E0401C02780AB18A42FAD1D0B2704717
:103870002DE9F04716460A460168DFF820A20D78C8
:10388000303D092D02D84B783A2B06D09AF80050DB
:10389000022D05D30B20BDE8F087891C0160F7E7F6
:1038A0007E48001D50F82540146094B1207820B166
:1038B000607800F02EFDC1070DD04FF0000984F8AC
:1038C0000090E8B2607000F0D6FCC10708D0032079
:1038D000E1E70C20DFE70EB1400704D40020DAE76F
:1038E0001EB1400701D50A20D5E700210D4620462C
:1038F000FFF788FF01280CD104F5F8700179E1B3D6
:10390000017AD0F8090041EA002529462046FFF750
:1039100079FF032801D080BB01E00120BBE7B4F8A8
:103920003D00B0F5007F5ED1B4F8480028B994F8A6
:103930005600D4F8571040EA0120C4F81E0094F84D
:1039400042108446E170012901D002294BD10CFBC1
:1039500001F094F83F10A17079B14B1E194242D189
:10396000B4F84320228113073DD1B4F845603EB935
:1039700094F85230D4F8536000E034E043EA06266D
:10398000B4F840707FB33B1803EB12139E422AD366
:10399000F61AB6FBF1F131B3012640F6F67841454F
:1039A00000D302264FF6F678414500D30326891C42
:1039B000C4F81A102B44C4F82A30EB19C4F822308A
:1039C000032E12D07AB11844C4F82600022E18D063
:1039D00001F0010001EB410100EB510000F2FF108A
:1039E000BCEB502F0FD20D2055E7002AFBD194F8E5
:1039F0005E00D4F85F2040EA0220C4F82600880068
:103A0000ECE74800EAE74FF0FF30C4F80E004F46FD
:103A1000C4F80A90032E34D16771B4F86200012310
:103A20004219C4F81220607804F1320100F059FC08
:103A300038BBB4F83002A0F52A41553921D194F8A9
:103A40003200D4F8331040EA01201549884218D1D9
:103A500094F81602D4F8171240EA0120114988425E
:103A60000FD194F81E02D4F81F1240EA0120C4F8C6
:103A70000A0094F81A02D4F81B1240EA0120C4F894
:103A80000E002670BAF80210491CAAF80210E18054
:103A9000C4F82E702771C4F816701FE79400002038
:103AA0005252614172724161426A0068490A8078EB
:103AB000B1FBF0F0121D02CA19B1884203D3401ABB
:103AC000F8E700207047116808447047D0F81A20C2
:103AD000891E921E8A4201D800207047D0F82A2001
:103AE000807801FB002070472DE9F0410F00064669
:103AF00006D001F0FFF902280BD20120BDE8F081C9
:103B0000D6F80A401CB1D6F81A00A04206D8012403
:103B100004E0D6F81A108142F0D83C464FEA04057A
:103B2000D6F81A006D1CA84202D80225022C0AD32E
:103B30002946304601F0DEF938B1411CDED00128BB
:103B4000DCD0A542ECD10020D8E76FF070422946C6
:103B5000304601F025FE30B957B12A463946304685
:103B600001F01EFE20B101280ED001252846C5E730
:103B7000C6F80A50D6F80E00411CF7D0401EC6F811
:103B80000E0001207071F1E74FF0FF35EEE7000005
:103B90002DE9F84F894680460F6800E07F1C387891
:103BA0002F28FBD05C28F9D00024D8F81C602546CB
:103BB000785D6D1C202827D32F2825D05C2823D0A2
:103BC000FF2C5FD2A0F181017D290BD8795D6D1C9E
:103BD000A1F140023F2A02D3403A7F2A52D201EBA0
:103BE000002080B2012101F0C3F85FEA000A49D049
:103BF000BAF1800F04D2014680A0FFF731FEE8BB86
:103C000026F814A0641CD3E77A19C9F800202028EC
:103C100001D2042500E000250021012C04D0022C53
:103C20002ED170882E2816D130882E2813D126F850
:103C300014100020A04201D22E2200E02022D8F849
:103C400018100A54401C0B28F4D3D8F8181045F06B
:103C500020020A54CFE006EB440030F8020C202882
:103C60000DD02E280BD04CB126F814100B22202199
:103C7000D8F8180001F0E7FB002707E002E0641E17
:103C8000002CE8D10620BDE8F88F7F1C36F817001D
:103C90002028FAD02E28F8D01FB145F0030500E007
:103CA000641E2CB106EB440030F8020C2E28F7D12C
:103CB000002082464FF0080BCDF8000036F81700C0
:103CC00007F101075FEA000924D0B9F1200F04D001
:103CD000B9F12E0F04D1A74202D045F00305EDE75C
:103CE0000098584501D2A7421AD1BBF10B0F0FD053
:103CF000A74201D045F003050CD84FF00800009012
:103D00004FEA8A6027464FF00B0B4FEA106AD5E75F
:103D100045F00305D8F818000178E52949D04AE0B4
:103D20004846B9F1800F07D301F048F8002101F0AF
:103D30001FF8814645F00205B9F1FF0F13D900992C
:103D4000ABF10100814204D345F00305CDF800B08A
:103D5000B4E7D8F8182000984FEA192111540098B8
:103D6000401C00901CE0B9F1000F04D0014626A0D1
:103D7000FFF776FD20B14FF05F0945F003050FE036
:103D8000A9F14100192802D84AF0020A08E0A9F175
:103D90006100192804D841304AF0010A1FFA80F95D
:103DA000D8F81820009902F801900098401C009063
:103DB00084E705210170BBF1080F03D14FEA8A6047
:103DC0004FEA106ACAF38100032803D06FEA0A01A0
:103DD000890701D145F00205A90709D40AF00301BA
:103DE000012901D145F01005012801D145F0080550
:103DF000D8F81800C572002045E70000222A3A3C96
:103E00003E3F7C7F000000002B2C3B3D5B5D0000B3
:103E10002DE9F84F0546002100F0EAF9002879D194
:103E20004FF0FF0BD9462969286801F013FB060003
:103E30000ED16C69207850B1E17AE52801F03F019C
:103E400003D00A0705D50F2909D0FF204DE004262D
:103E500072E00F2903D0B9F1000F4BD04FE0E969B0
:103E600081B3420606D594F80DB020F04000EA88F0
:103E700081462A84484536D1627B5A4533D1009128
:103E80002078A04620F04000401E00EB8001002773
:103E9000DFF8ACA001EBC006012400BF1AF8071040
:103EA00001EB0800008874B100F088FF0446FF2E83
:103EB00019D2009830F81600761C00F07FFFA0425F
:103EC00011D104E02FE0A0F57F41FF390BD17F1C19
:103ED0000D2FE3D398F80000400608D53CB10098B8
:103EE00030F8160018B1FF20C0B281461DE0A9F1DC
:103EF0000100F9E7204601F08CFD58451CD04FF633
:103F0000FF702884A8694FF0FF09C17AC9070CD156
:103F10000A2102E011E0491E06D314F8013B10F813
:103F2000012B9A1AF7D000E032B10021284600F0A8
:103F300009F806003FF477AF3046BDE8F88F00007F
:103F4000186000082DE9F0410446C0880F46401C67
:103F50000604360C2ED0206960B3310762D1401CB4
:103F60002061E168206829B18278521E12EA161F8A
:103F700004D057E00089B0421CD953E000F0BAFFEA
:103F8000054601281BD9681C35D02068D0F81A10C6
:103F9000A94241D877B1E168FFF7A6FD05000CD032
:103FA000012D0CD0681C26D00021206801F052FAA7
:103FB00008BB06E00420BDE8F0810720FBE70220F3
:103FC000F9E720684FF400720021323001F03BFA2B
:103FD00029462068FFF77AFD216800274FF0010885
:103FE000C1F82E0010E000BF80F804800021206896
:103FF00001F030FA08B10120DDE7206850F82E1FEB
:10400000491C7F1C0160FFB220688178B942EBD85F
:1040100050F82E1FC91B0160E56029462068FFF794
:1040200055FD2061E68006F00F013222206802EB88
:104030004111084460610020BDE700002DE9FF5FE9
:1040400004460C22D4E906763946684601F0F2F9B6
:104050009DF80B00810603D5062004B0BDE8F09F53
:10406000C00719D00020F8720125E0612B463246C6
:104070006946384600F002FF2046FFF7C9FE18B92E
:104080006D1CADB2642DF1D3642D0BD00428E4D1A6
:104090009DF80B00F872E6619DF80B0080070FD5C4
:1040A000002003E00720D8E7401C80B236F810104B
:1040B0000029F9D10D211930B0FBF1F087B200E0F1
:1040C00001270021204600F093F80028C5D10026E2
:1040D000B0462169206801F0BDF905000BD1606987
:1040E0000078E52808D038B1002601212046FFF7E6
:1040F00029FF0500EDD077E00EB9B4F80680761CF4
:10410000B6B2BE42F1D1012F55D94146204600F04A
:104110006FF8050068D1A06901F07BFC7F1E1FFAD3
:1041200087FB03902169206801F094F905005BD1B9
:104130006169D4F81C90039848730F20C87200205E
:10414000087388760BF0FF0AC876AAF1010000EB2D
:10415000800202EBC00500234FF6FF7E234E4A1C6F
:1041600001E0604503D039F81500F4466D1CF75C9A
:10417000C85516F80380070A08F8027000B96046AF
:104180005B1C0D2BEDD3704502D039F8150008B932
:104190004AF0400A81F800A021680120087100213E
:1041A0002046FFF7CFFE05001ED1ABF1010080B223
:1041B0005FEA000BB6D12169206801F04BF90500D8
:1041C00012D1666920220021304601F03CF90B2211
:1041D0003046A16901F02EF9A069C07A00F01800FC
:1041E0003073216801200871284636E718600008FE
:1041F00070B50D46C18081680446012922D020682F
:10420000D0F81A208A421DD929B90278032A05D18B
:10421000D0F8261011B18078060119E0E16001891B
:10422000A9420FD9D0F8260018E0206800F062FEFD
:104230000146401C08D0022904D32068D0F81A0097
:10424000884203D8022070BD012070BDA81B85B232
:10425000B542EAD2E1602068FFF738FC00EB1510A8
:10426000206105F00F013222206802EB4111084461
:104270006061002070BD10B550B9FDF7F9FF00284E
:1042800007D0FEF718F9FF20FEF710F9FEF710F936
:10429000012010BD10B5144610B10124204610BDF8
:1042A00039B1012918D0022910D0032911D00424D2
:1042B000F4E70020FDF766FFFEF763F920B1012463
:1042C0000120FDF75FFFE9E70024F9E74FF40070F4
:1042D00000E00820108002E0FDF792FF206000243B
:1042E000DCE770B514460D460BB180B901E004203F
:1042F00070BD1A4621462846FEF766F80028F7D01A
:10430000FEF7D9F8FF20FEF7D1F8FEF7D1F801202B
:1043100070BD0020704770B514460D460BB148B90A
:1043200001E0042070BD1A4621462846FEF73AF9FE
:104330000028F7D0012070BD10B5044600F0FAFB4C
:10434000002801D10021216010BD00002DE9F74FA8
:1043500090B01546022803D30B2013B0BDE8F08FB0
:104360001199012902D8691E0D4201D01320F4E7EA
:10437000F94951F8204044B1002121700390FFF722
:104380007AFFC10703D00320E7E70C20E5E74007E9
:1043900001D50A20E1E707AA01210398FFF77AFF78
:1043A00000287DD1079880287AD3119909B1002778
:1043B00000E03F27C11B07917DB94FF4FA60B1FBC4
:1043C000F0F20020E54B00E0401C33F8105095421D
:1043D000FAD8E24A163232F81050680A5FEA000949
:1043E00012D0B9F1800F01D980208146B1FBF9F0DC
:1043F000012540F6F672904200D302254FF6F67280
:10440000904203D303251FE00120EEE7032D1BD0CC
:10441000012D22D04000001D00F2FF10460A4FF08F
:1044200001082020824607EB080B0BEB06005044E6
:1044300008904844C01B88424BD809AA032103981E
:10444000FFF728FFA0B90EE040F2072202EB800040
:10445000460A4FF020080020E4E700EB4000401C33
:104460004008C01CD8E7099810B1B0F5004F01D939
:1044700001200990DDE908010844401E491E8843D7
:104480000899401A0990032D12D006440798A0EB12
:1044900008018A1BA2EB0A02B2FBF9F10D9100E0C0
:1044A000D3E0022D07D0032D0ED0012D1BD112E039
:1044B00080448344EAE740F6F672914209D3B0F5AE
:1044C000803F0AD2042009E008464FF6F671884280
:1044D00009D20E2041E7012000E006200290119849
:1044E00018B1F0203CE00C20F8E704F132004FF462
:1044F00000720021089000F0A6FF04F5F870012179
:10450000417081700021C170029A0271FE224271D5
:10451000079A43F6C1633A44B2FBF3F23F2343EAFE
:10452000920C099280F806C0C271037241728172C6
:10453000C172079901730A0A42730A0C8273090E49
:10454000C173552084F83002AA2084F83102012377
:10455000002208990398FFF7DEFE002875D1F820A5
:10456000323402904FF400720021204600F06BFFBD
:104570000B227BA1204600F05DFF0021E1720220AA
:10458000207384F80D9084F80E804FEA1820E073B1
:1045900001202074032D0BD040026074000AA07427
:1045A0000798B0F5803F05D2E074000A20750CE052
:1045B0000020F2E784F82000020A84F82120020C8F
:1045C00084F82220000E84F82300029860753F20B2
:1045D0002076002060764FF0FF0884F81A80E0769D
:1045E0002777380A6077380CA077380EE07700F02C
:1045F000E2FC802129220990032D27D084F827008E
:10460000030A84F82830030C84F82930000E84F85B
:104610002A00A675300AE07584F8241084F8262054
:10462000132252A104F12B0000F004FF552084F85E
:10463000FE01AA2084F8FF0101233A46214603988F
:10464000FFF769FE002889D133E0A5E084F8430034
:10465000030A84F84430030C84F84530000E84F8D3
:10466000460084F82460300A84F82500300C84F871
:104670002600300E84F82700022084F82C00002049
:1046800084F82D0084F82E0084F82F00012384F88C
:10469000303084F83100062384F8323084F8330057
:1046A00084F8401084F84220132235A104F1470019
:1046B000BAE7032D05D10123BA1D21460398FFF760
:1046C0002AFE4FF400720021204600F0BCFE029842
:1046D0000990032D12D0012D0ED06FF0FF01014380
:1046E000099121700998000A60700998000CA07067
:1046F0000998000EE0701EE02649F0E760F0FF0028
:10470000099020700998000A60700998000CA07048
:104710000998000EE07084F8048084F8058084F81D
:10472000068084F8078084F8088084F8098084F87B
:104730000A800F20E0725A460BF10108012321463E
:104740000398FFF7E8FD38BB4FF4007200212046C4
:1047500000F079FE01202BE0980000202660000880
:10476000EBFE904D53444F53352E30004E4F204EAC
:10477000414D45202020204641542020202020006B
:104780004E4F204E414D452020202046415433328B
:104790002020200000FFFF0046E0424608F101080B
:1047A000012321460398FFF7B6FDE8BB0998401C9A
:1047B0000990B042F1D3032D0AD05646424608F183
:1047C0000108012321460398FFF7A5FD60BB01E026
:1047D0004E46F3E7761EF1D1032D3AD152202070D8
:1047E00060706121A1704120E070722284F8E421A0
:1047F00084F8E52184F8E60184F8E7110D98401E5D
:1048000084F8E801010A84F8E911010C84F8EA113E
:10481000000E84F8EB01022084F8EC01002084F8FB
:10482000ED0184F8EE0100E01BE084F8EF01552073
:1048300084F8FE01AA2084F8FF0101237A1C214696
:104840000398FFF768FD0123FA1D21460398FFF73F
:1048500062FD002211460398FFF71CFD00283FF47B
:1048600086AD012079E5000010B5022801D30B20A8
:1048700010BD064B002453F8202002B1147001B182
:104880000C7043F82010002010BD0000980000209C
:104890002DE9F7478DB04FF00009074602F01F06DB
:1048A000C0F8009026F0010269460EA8FEF7E0FF6E
:1048B000050009A806904748079004D168460E995C
:1048C00000F08EFA0546059C0DB904B9062516F0D0
:1048D0001C0F51D055B1042D03D16846FFF7AEFB34
:1048E0000546059C46F0080655B16EE0E07A10F0EA
:1048F000110F01D0072568E0700701D5082564E095
:10490000300747D500F057FBA073010AE173010C93
:104910002174000E607484F80B9084F81C9084F865
:104920001D9084F81E9084F81F90A28A618B84F8F1
:104930001A9084F81B9062F31F4184F814905FEA88
:10494000010884F8159000994FF001000871414664
:104950001ED00098D0F82EA001F026F8050034D122
:104960000099A8F10100C1F80A005146009800F032
:1049700071FD05000AD028E03DBBE07AC10601D5F3
:10498000042522E0B10701D5C007B3D1300701D516
:1049900046F020060098D0F82E00C7E90704BE7143
:1049A000A18A608B61F31F403861207FD4F81D100D
:1049B00040EA0120C7E90290C7F81890C7F8249090
:1049C000009838600098C088B88010B02846BDE8CC
:1049D000F08700006C1000202DE9F05F0F460021E9
:1049E00019600446818898461546006801F086F9EA
:1049F000002803D1A079010602D50220BDE8F09F6E
:104A0000C00708D0D4E90201081A04F12809854238
:104A100000D9054689E00720F0E7A168C8056CD1F8
:104A200020688278521E02EA512212F0FF0610D14D
:104A300029B1626A2AB12046FFF736F804E02069FE
:104A400002E0616900F056FA02281ED3411C4CD0E6
:104A5000606161692068FFF739F8B0B100EB060BBF
:104A6000680A5FEA000A27D0216806EB0A02887804
:104A7000824201D9A0EB060A48780AF0FF035A46A1
:104A80003946FFF72EFC80BB04E0A07940F080009F
:104A9000A071B2E7A07940060BD5A169A1EB0B008C
:104AA000504506D207EB40204FF40072494600F013
:104AB000C1FC4FEA4A262EE0A2695A451BD0A079D4
:104AC00040060AD52068012349464078FFF723FCB9
:104AD00058B9A07920F04000A071206801235A46FF
:104AE00040784946FFF7FDFB28B1A07940F08000EF
:104AF000A071012082E7C4F818B02089C0F3080033
:104B0000C0F50076AE4200D92E460119324638462D
:104B1000283100F08FFCA06837443044A060D8F8FA
:104B200000008119AD1BC8F80010002D7FF475AF8F
:104B3000002063E770B504468188006801F0DEF864
:104B400000280ED1A1798A060BD548060ED520681B
:104B5000012304F128014078A269FFF7DCFB08B1CA
:104B6000012070BDA07920F04000A071E1692068AB
:104B700000F070FC0028F4D1256AE87A40F02000AB
:104B8000E872207B2877A089000A6877E068000C2B
:104B9000A877E068000EE877207CA876208A000AD3
:104BA000E8762069000C28752069000E687500F011
:104BB00002FAA875010AE975010C2976000E6876DB
:104BC000A07920F02000A0712168012008712068E0
:104BD000BDE8704000F02ABF2DE9F05F04460020D8
:104BE00018600E4698461546A188206801F086F8A0
:104BF000002803D1A079010602D50220BDE8F09F6C
:104C0000800701D40720F9E7E16804F128094A196F
:104C10008A4269D39DE0A168C8057ED12268907858
:104C2000401E00EA512010F0FF0719D129B1606A37
:104C300058B12046FEF738FF0BE0206958B9002133
:104C40001046FEF751FF206103E010466169FEF750
:104C50004BFF002848D001282DD0411C54D0606162
:104C6000A07940060BD52068012349464078A26907
:104C7000FFF751FBB8BBA07920F04000A07161693B
:104C80002068FEF723FFB0B100EB070B680A5FEA6C
:104C9000000A2AD0206807EB0A0281788A4201D9EB
:104CA000A1EB070A0AF0FF0340785A463146FFF7A6
:104CB00032FBC0B904E0A07940F08000A0719CE70D
:104CC000A169A1EB0B0050450AD206EB40214FF43D
:104CD0000072484600F0AEFBA07920F04000A071C1
:104CE0004FEA4A272BE00FE036E0A169594512D080
:104CF000D4E9020188420ED2206801235A46407846
:104D00004946FFF7EEFA30B1A07940F08000A0717B
:104D1000012073E701E0C4F818B02089C0F308004F
:104D2000C0F50077AF4200D92F4620443A463146BD
:104D3000283000F07FFBA07940F04000A071A0680F
:104D40003E443844A060D8F80000ED1B3844C8F851
:104D50000000002D7FF45FAFD4E90201884200D942
:104D6000E060A07940F02000A071002046E700003C
:104D700070B580281BD345F2205309B10D4D00E0DA
:104D80000D4D002110245A1A02EBD27201EB62027F
:104D900035F82260864206D001D2114600E0134663
:104DA000641EF0D104E01CB105EB8200408870BDA8
:104DB000002070BDD6B40108526000080021064BE7
:104DC00000E0491C33F81120002A04D08242F8D1B7
:104DD000024830F8110070475A0903083A0B0308DB
:104DE00073B504460199002508782F280FD05C2858
:104DF0000DD02068D0F81600A06001980078202817
:104E000009D200212046FFF7F3F965617CBD491CFA
:104E10000191A560F1E701A92046FEF7B9FE00283F
:104E2000F4D12046FEF7F4FFA169C97A68B10428DD
:104E3000ECD18A0605D5A560002065614907EAD551
:104E40007CBD4907FCD405207CBD4907FCD46069C2
:104E5000C17AC906F7D5818A408B61F31F40A060F3
:104E6000D9E7000004490A685206FCD5024AC1B2DB
:104E70000C321180704700001C3801407CB516468A
:104E80001C4605460B2200F0D5FA052C09D960080E
:104E900036F8021B00EBC430084484B23088002886
:104EA000F5D107214FEA0D0304F00F003030392807
:104EB00000D9C01D5854491E2409F5D17E20002276
:104EC00058544C1E06E081387D2802D8A24206D0F4
:104ED000521C521C8A4202D2A85C2028F3D1082915
:104EE00002D2585C491C00E02020A854521C082A19
:104EF000F5D37CBD2DE9F0410D460446022903D3CC
:104F0000D4F81A00A84202D80120BDE8F081207828
:104F1000012804D0022828D003283BD132E0D4F85D
:104F2000220005EB550600EB5621204600F092FAD0
:104F300080BBC6F308002044761C90F83270D4F889
:104F4000220000EB5621204600F084FA10BBC6F385
:104F500008002044E90790F8320047EA002001D019
:104F60000009D2E7C0F30B00CFE7D4F8220000EB32
:104F70001521204600F06EFA60B9E8B204EB40005B
:104F8000408EC2E7D4F8220000EBD511204600F095
:104F900061FA10B14FF0FF30B7E740F2FF1000EABE
:104FA0008500204490F83210D0F8330041EA002008
:104FB00020F07040A9E70020704700000FB470B5E2
:104FC0009AB00D4606461446642101A8FBF77FF906
:104FD00022AA01A82199FDF795FF01A80090064893
:104FE00023462A4650F8261004A0FDF77BFF1AB08E
:104FF00070BC5DF814FB0000780000200D0A20252D
:105000002D37732025733A25643A25730D0A000065
:10501000ADF52B6DFBF708FDFDF74EFCFCF7A6FF89
:10502000FDF726F8FDF742F8FDF75EF8FCF7DCFF28
:10503000FCF7F6FF54A0FDF755FF5CA0FDF752FF0B
:1050400060A0FDF74FFF64A0FDF74CFF68A0FDF7DF
:1050500049FF4DA0FDF746FF01226A496A48FCF767
:10506000FBFE4FF4806421468AA8FBF730F91C222E
:1050700066A10DF68C20FBF711F9FDF7D3FA6AA0B3
:10508000FDF730FF0DF5C5610020FFF7EDFB014690
:105090000D2805D000291ED06CA0FDF723FF1DE0D0
:1050A00079A0FDF71FFF002211461046FFF74EF9C9
:1050B000010003D07EA0FDF715FFFEE784A0FDF7F9
:1050C00011FF00210846FFF7CFFB0DF5C561002059
:1050D000FFF7CAFB02E083A0FDF704FF8BA0FDF7FA
:1050E00001FF0A2290A16846FFF7D2FB010012D00F
:1050F00093A0FDF7F7FE9AA0FDF7F4FE01228AA126
:105100006846FFF7C5FB010023D08DA0FDF7EAFE3E
:1051100000F0DAF9FEE799A0FDF7E4FE0DF6A8230A
:105120001C220DF68C216846FFF756FD30B19BA07E
:10513000FDF7D8FE6846FFF7FFF8DCE79CA0FDF717
:10514000D1FE0DF68C219FA0DDF8A82AFDF7CAFE3E
:10515000F0E7A3A0FDF7C6FE0DF6A82322468AA914
:105160006846FFF739FC30B1A5A0FDF7BBFE6846E5
:10517000FFF7E2F8CCE7A7A0FDF7B4FE8AA9AAA042
:10518000FDF7B0FEF3E700002F2A2A2A2A2A2A2A4E
:105190002A2A2A2A2A2A2A2A2A2A2A2A2A2A2A2A6F
:1051A0002A2A2A2A2A2A2A2A2F0D0A004070726FD8
:1051B0006A65637420200961645F70726F6A656359
:1051C000740D0A004076657273696F6E2020093194
:1051D0002E300D0A0000000040617574686F722067
:1051E000200946616E58696E59750D0A000000006D
:1051F0004074696D6520200909323031392F380D2E
:105200000A000000000000205C020020B3C9B9A61B
:10521000D2C6D6B2C1CB4661744673CEC4BCFECFF3
:10522000B5CDB3A3A10D0A005344BFA8B3F5CABCC2
:10523000BBAFB3C9B9A6A3ACBCB4BDABB9D2D4D8CB
:105240005344BFA8A1A30D0A00000000B9D2D4D8CE
:10525000CEC4BCFECFB5CDB3CAA7B0DCA3A1BFC935
:10526000C4DCCAC7D2F2CEAACEC4BCFEB3F5CABC57
:10527000BBAFCAA7B0DCA3A1B4EDCEF3B4FAC2EBC6
:10528000A3BA25640D0A00005344BFA8C3BBD3D002
:10529000CEC4BCFECFB5CDB3A3ACBCB4BDABBDF8E2
:1052A000D0D0B8F1CABDBBAF2E2E2E0D0A00000023
:1052B000CEC4BCFEB8F1CABDBBAFCAA7B0DCA3A1C7
:1052C000B4EDCEF3B4FAC2EBA3BA25640D0A000024
:1052D0005344BFA8B3C9B9A6B8F1CABDBBAFA3A117
:1052E0000D0A0000CEC4BCFECFB5CDB3B9D2D4D820
:1052F000B3C9B9A6A3AC20BFC9BDF8D0D0B6C1D040
:10530000B4B2E2CAD4A3A10D0A000000BCB4BDAB84
:10531000BDF8D0D0CEC4BCFED0B4C8EBB2E2CAD483
:105320002E2E2E2E0D0A0000303A323031395F30E9
:10533000385F32335F31302730312E74787400009B
:10534000CEC4BCFED0B4C8EBCAA7B0DCA3A1B4EDF8
:10535000CEF3B4FAC2EBA3BA25640D0A0000000034
:10536000BCB4BDABBDF8D0D0CEC4BCFEB6C1C8A1E4
:10537000B2E2CAD42E2E2E2E0D0A0000B4F2BFAA1D
:10538000CEC4BCFEB3C9B9A6A3A1BFAACABCD0B43F
:10539000C8EBCAFDBEDDA3A10D0A0000CAFDBEDD3B
:1053A000D0B4C8EBCAA7B0DCA3A10D0A000000006E
:1053B000CAFDBEDDD0B4C8EBB3C9B9A6A3A10D0A1E
:1053C00000000000CAFDBEDDA3BA2573A1A3B9B2D7
:1053D000D0B4C8EB2564B8F6D7D6B7FB0D0A0000E9
:1053E000B4F2BFAACEC4BCFEB3C9B9A6A3A1BFAADA
:1053F000CABCB6C1C8A1CAFDBEDDA3A10D0A00008A
:10540000CAFDBEDDB6C1C8A1CAA7B0DCA3A10D0A02
:1054100000000000CAFDBEDDB6C1C8A1B3C9B9A66F
:10542000A3A10D0A00000000CAFDBEDDA3BA2573CA
:105430000D0A000004E000BF11F8013B00F8013B39
:10544000521EF9D27047C9B201E000F8011B521E8A
:10545000FBD270472DE9F041D0F82E500F4604469C
:10546000BD422FD0217904F13208F1B160780123D7
:105470002A464146FEF74FFFF8B900202071D4F8C4
:105480002200D4F81E100844A8420ED9E6780AE09B
:10549000D4F81E000123054460782A464146FEF7F1
:1054A0003AFF761EF6B2012EF2D85FB16078012382
:1054B0003A464146FEF715FF10B10120BDE8F081E4
:1054C000C4F82E700020F9E710B500F0ADFB002005
:1054D00010BD00002DE9F041054600F033FB2E4CD5
:1054E000A068401CA06020682C4F10B1606940B3D8
:1054F0002DE02560A068012829D1002606EB860052
:1055000007EB800000F004FB761C072EF6D323483F
:105510008C3000F0FDFA2148A03000F0F9FA1F4865
:10552000B43000F0F5FA1D48C83000F0F1FA1B481D
:10553000DC3000F0EDFA19488C3060631430A06361
:1055400005E02068E96AC06A884200D82560606A80
:10555000401C6062E96A0120226988401043206192
:1055600001EB810007EB8000291D00F0DFFA00F05D
:1055700009FB606900280CD02068E96AC06A88428B
:1055800007D207494FF080500860BFF34F8FBFF339
:105590006F8FBDE8F0810000180000207C03002020
:1055A00004ED00E070B5114E114C17E000F070FBF7
:1055B0003068B8B100F0B2FC00F0C4FAF068C56819
:1055C000281D00F093FAA068401EA0606068401E8D
:1055D000606000F0D7FA284600F00CF860680028F8
:1055E000E4D170BD00F09AFCF8E70000440400200C
:1055F0001800002010B50446006B00F0D7FA2046D2
:10560000BDE8104000F0D2BA10484FF440614207A4
:1056100006D0C01D0D4920F00700411AC1F54061B8
:105620000B4A00230144C2E900030839103A21F073
:10563000070111604B600B600B1AC0E90013936007
:105640004FF000405360D060704700006C040020B1
:1056500064000020074C4FF08056074DFFF7A2FF73
:1056600020680128FAD92E60BFF34F8FBFF36F8FE8
:10567000F4E700007C03002004ED00E02DE9F04792
:105680009A46DDE9098481466FF00303206B03EB42
:1056900082021044089D20F00706700707D05020B2
:1056A00080F31188BFF34F8FBFF36F8FFEE723188E
:1056B0000A5C83F834200A5C12B1401C1028F6D32F
:1056C000002784F84370072D00D30625E562C4E95E
:1056D0001157201D00F027FA04F1180000F023FAFA
:1056E0002461C5F107006462A061E76484F850702A
:1056F00052464946304600F041F92060B8F1000FAB
:1057000001D0C8F80040BDE8F087000030B511496D
:1057100000E011460A688242FBD34B685C18844261
:1057200003D1406818444860084643681C189442F6
:1057300009D1084C103C2468A24209D052681A448E
:1057400042600A6812680260814200D0086030BD81
:105750000460F9E7640000200648416B096829B13C
:10576000416BC968C9684968816270474FF0FF3171
:10577000FAE700001800002008484068401C4FF07D
:10578000500080F3118804D0BFF34F8FBFF36F8FA9
:10579000FEE7BFF34F8FBFF36F8FFEE76C00002073
:1057A0002DE9F04717460D460446022903D3D4F8E5
:1057B0001A00A84202D80220BDE8F087217807F03D
:1057C000FF084FF00109012907D0022939D0032928
:1057D00049D0022084F80490EEE7D4F8220005EBCB
:1057E000550600EB56212046FFF734FE0028F1D184
:1057F000C6F3080020443230E90703D0017868F38B
:105800001F1100E03946017084F80490D4F822009A
:10581000761C00EB56212046FFF71CFE0028D9D14C
:10582000C6F3080121443231EA0702D0C7F3071258
:1058300005E00A78C7F3032302F0F0021A430A7066
:10584000C8E7D4F8220000EB15212046FFF702FE3E
:105850000028BFD1E9B204EB41013A0A81F8328055
:1058600081F83320B6E7D4F8220000EBD5112046AA
:10587000FFF7F0FD0028ADD140F2FF1101EA8501EC
:105880000A194FF07043D2F8331003EA012139436B
:1058900002F8321F0B0A53700B0C9370090ED17073
:1058A00098E700002DE9F0410546002700F0F0F9E7
:1058B000314E306808B9FFF7A7FEF06805424BD1BA
:1058C000C5B3083568070ED005F00700C0F1080021
:1058D0000544680707D0502080F31188BFF34F8F2D
:1058E000BFF36F8FFEE72DB37068854234D822482E
:1058F000103001460C6801E020460C466168A94260
:1059000002D221680029F7D131688C4224D007687F
:105910002168016060680837411B10290FD96019A0
:10592000420708D0502080F31188BFF34F8FBFF398
:105930006F8FFEE710E041606560FFF7E7FE61688A
:105940007068401A7060B268904200D2B060F0682F
:1059500001430020C4E9000100F0E0FA780707D015
:10596000502080F31188BFF34F8FBFF36F8FFEE796
:105970003846BDE8F08100005400002010B5031F38
:105980004FF080741C601B1F21F001011960191F6A
:10599000044B0B6014390A60091F6FF0020244388F
:1059A0000A6010BD795700082DE9F0410E46074600
:1059B000022919D3D7F81A00B04215D900254FF0A3
:1059C00001081FE031463846FFF794FA04001DD065
:1059D000012C09D0601C09D0002231463846FFF75F
:1059E000DFFE050012D103E002250FE001250DE0E6
:1059F000D7F80E00411C04D0401CC7F80E0087F8F1
:105A000005802646D7F81A00B042DBD82846BDE804
:105A1000F081014600200B22430803EBC01011F86F
:105A2000013B521E1844C0B2F6D170472DE9F04137
:105A300004460021FFF70EFD050054D1207803280D
:105A40004AD16079E8B3002604F13200C4F82E6030
:105A50004FF4007231460746FFF7F5FC552084F8F5
:105A60003002AA2084F83102522084F8320084F8EF
:105A70003300612084F83400412184F8351072220B
:105A800084F8162284F8172284F8181284F8190270
:105A9000D4F80E0084F81A02010A84F81B12010CD3
:105AA00084F81C12000E84F81D02D4F80A0084F851
:105AB0001E02010A84F81F12010C84F82012000E45
:105AC00000E009E084F82102D4F812206078012374
:105AD0003946FEF720FC6671002260781146FEF719
