:020000040800F2
:100000001816002059020008B31E0008011D000840
:10001000B11E000821080008852500080000000026
:100020000000000000000000000000009D0100082A
:10003000C508000800000000F1010008111F0008B9
:1000400073020008730200087302000873020008BC
:1000500073020008730200087302000873020008AC
:10006000730200087302000873020008730200089C
:10007000730200087302000873020008730200088C
:10008000730200087302000873020008730200087C
:10009000730200087302000873020008730200086C
:1000A000730200087302000873020008730200085C
:1000B0001920000873020008730200087302000888
:1000C000730200087302000873020008730200083C
:1000D00073020008412500084D2500087925000815
:1000E000730200087302000873020008730200081C
:1000F0007302000873020008000000000000000006
:1001000000000000000000007302000873020008F5
:1001100000000000000000007302000873020008E5
:1001200073020008730200087302000873020008DB
:1001300073020008730200087302000873020008CB
:100140007302000800000000000000000000000032
:10015000000000000000000000000000000000009F
:100160000000000000000000730200087302000895
:100170007302000800000000730200080000000085
:100180000000000073020008DFF80CD000F0B8FA9D
:10019000004800475D340008181600202B4B1968F2
:1001A0000868B0E8F04F80F30988BFF36F8F4FF015
:1001B000000080F3118870470000000006480068C6
:1001C000006880F3088862B661B6BFF34F8FBFF353
:1001D0006F8F00DF00BF00BF08ED00E0DFF80C000C
:1001E000016841F470010160704700BF88ED00E0D4
:1001F000EFF30980BFF36F8F144B1A681EF0100FD6
:1002000008BF20ED108A20E9F04F106008B44FF0CD
:10021000500080F31188BFF34F8FBFF36F8F03F04F
:100220005DFF4FF0000080F3118808BC1968086872
:10023000B0E8F04F1EF0100F08BFB0EC108A80F34A
:100240000988BFF36F8F704700BF00BF20000020F8
:10025000EFF30580704700000648804706480047D6
:10026000FEE7FEE7FEE7FEE7FEE7FEE7FEE7FEE766
:10027000FEE7FEE7B11F000889010008202A04DB21
:10028000203A21FA02F00021704721FA02F3D0400F
:10029000C2F12002914008431946704740EA010329
:1002A0009B0703D009E008C9121F08C0042AFAD22C
:1002B00003E011F8013B00F8013B521EF9D27047F0
:1002C000D2B201E000F8012B491EFBD27047002298
:1002D000F6E710B513460A4604461946FFF7F0FF45
:1002E000204610BD10B5002200E0521C835C8C5CDF
:1002F000A34201D1002BF8D1D8B2E1B2401A10BD0F
:1003000030B50B46014600202022012409E021FAE5
:1003100002F59D4205D303FA02F5491B04FA02F5E2
:100320002844151EA2F10102F1DC30BD2DE9F05F79
:100330000546002092469B46884606468146402454
:100340001BE02846414647462246FFF797FF5346A3
:100350005A46C01A914110D311461846224600F061
:10036000E1F92D1A67EB01084F46224601200021D2
:1003700000F0D8F917EB00094E41201EA4F101044A
:10038000DFDC484631462A464346BDE8F09F2DE96A
:10039000FE4F804681EA0300C00F0C46009021F01A
:1003A000004123F00045B8EB0200A94105D24046C8
:1003B000214690461C460B46024623F0004010435F
:1003C00047D0270DC7F30A00C3F30A510290401A21
:1003D000019040286BDAC3F3130040F4801B0098AF
:1003E000924620B10023D2EB030A63EB0B0B01987A
:1003F0005946C0F14002504600F094F906460D46B9
:1004000050465946019A00F09CF910EB08006141F2
:10041000002487EA115284EAE7731A4340D0009A15
:1004200062B3019A012A4FEA075215DC001B61EB07
:1004300002014FF0004202EA0752CDE90042001CDF
:1004400041F5801132462B4600F09CF903B0BDE81F
:10045000F08F40462146F9E7001B61EB0201001CCA
:1004600041F5801300185B412018A2F5001747EBF7
:10047000030140EAD570B6196D4111E06D084FEAED
:10048000360645EAC0754FEA0752001B61EB0201D0
:10049000001C41F5801149084FEA30000019514114
:1004A00032462B4603B0BDE8F04F00F05CB900982F
:1004B000012240000023D0EB020263EBE0730098BE
:1004C00021464FEAE074B8EB000061EB0401E9E774
:1004D00083F000435BE781F0004158E72DE9FE4FD0
:1004E00081EA030404F0004421F0004100944FF03D
:1004F000000B23F0004350EA01045ED052EA0304EB
:100500005BD0C3F30A54C1F30A552C44A4F2F3346C
:100510000194A0FB0254C1F3130141F48011C3F311
:10052000130343F4801301FB024400FB034E840ACF
:10053000970A44EA815447EA8357A4FB0768029567
:100540008D0A05FB07854FEA932C04FB0C54270505
:10055000029D4FEA065847EA1637B5EB08056EEBE1
:10056000070C870E920E47EA811742EA8312A7FB17
:100570000201B6EB0B0164EB00042B0D43EA0C33D4
:100580005E1844EB1C50DA465146E7FB0201C5F306
:1005900013044FEA0B3343EA14534FEA0432019C2D
:1005A00043EA0603A4F10C040294009CCDE900B4D4
:1005B00000F0E8F803B0BDE8F08F00200146F9E74D
:1005C0002DE9F04D81EA030404F0004B21F00045D1
:1005D00014464FF0000A23F0004150EA050220D0F3
:1005E00054EA01021DD0C5F30A570246C5F31303AE
:1005F000C1F31300C1F30A5640F4801543F480138D
:10060000A7EB0608101BD64608F2FD3873EB050071
:1006100002D308F1010801E092185B41B8F1000F24
:1006200003DA00200146BDE8F08D00204FF4801170
:10063000064684460EE0171B73EB050705D3121B15
:1006400063EB050306434CEA010C49084FEA30000E
:1006500092185B4150EA0107EDD152EA030012D033
:1006600082EA040083EA0501084305D0101BAB4170
:1006700006D20122002306E000224FF0004302E0F0
:100680006FF0010253101AEB06004CEB085110EB0F
:100690000A0041EB0B01BDE8F04D00F064B8C1F376
:1006A0000A52C1F3130140F2FF3341F480119A4220
:1006B00002DA00200146704740F233439A42A2F228
:1006C000334202DC5242FFF7D9BD00F02BB80000E4
:1006D00030B5041E71F1000404DB4FF000444042C9
:1006E00064EB0101141E73F1000405DB1C464FF09E
:1006F0000043524263EB0403994208BF904230BD6D
:10070000064C074D06E0E06840F0010394E807005E
:1007100098471034AC42F6D3FFF73AFDD4490008AD
:10072000F4490008202A04DB203A00FA02F10020F4
:1007300070479140C2F1200320FA03F3194390401F
:100740007047202A06DBCB17203A41FA02F043EA31
:10075000E07306E041FA02F3D040C2F1200291407A
:1007600008431946704710B5141E73F1000408DAE7
:10077000401C41F1000192185B411A4301D120F065
:10078000010010BD2DE9F04D92469B4611B1B1FA22
:1007900081F202E0B0FA80F220329046FFF7C2FF09
:1007A00004460F4640EA0A0041EA0B0153465A4606
:1007B000084313D0114653EA010019D0C8F1400292
:1007C0005046FFF75BFD05460E46504659464246E9
:1007D000FFF7A8FF084305D0012004E02046394672
:1007E000BDE8F08D0020054346EAE0762C43374310
:1007F0000A986305E40AA0EB08000022FD0A44EA17
:1008000047540A3002D500200146E9E701051019D6
:100810006941DDE9084500196941BDE8F04DA2E7ED
:10082000FEE7000070B51C4900230C1F0A22A068D7
:1008300003F016FD00282DD0606818A1801CFFF77A
:1008400051FD4FF47A7578B92B460D2216A11A483E
:1008500001F0FAF961682B4618221748891C01F04B
:10086000F3F9606802F0A8FD606814A1801CFFF72E
:1008700039FD78B92B460D220BA10F4801F0E4F9A0
:1008800061682B4618220C48891C01F0DDF960686C
:1008900002F092FD002070BD9C00002061645F7337
:1008A0007461727400000000CAD5B5BDB5C4C3FC44
:1008B000C1EECAC7000000000402002061645F723C
:1008C000656164007047704710B590F821100024EE
:1008D000022903D004218163012418E001680A6819
:1008E00022F00E020A6001680A6822F001020A6022
:1008F00090F84020C36B012101FA02F25A6080F89F
:100900002110002180F82010416B01B1884720465A
:1009100010BD00002DE9F84FDFF864B100234FF05F
:10092000010C4FF0030A4FF00F090BF1040EA0E089
:100930000CFA03F6324072D04C68022C01D0122C13
:100940000ED1DC0800EB8408D8F820405D07EF0EDC
:1009500009FA07F5AC430D69BD402543C8F820509E
:1009600007685D0091F804800AFA05F408F00308AE
:10097000A74308FA05F848EA0708C0F800804F685E
:10098000012F05D0022F03D0112F01D0122F11D12A
:100990008768D1F80C80A74308FA05F848EA0708E9
:1009A000C0F808804768B7430E79C6F300169E402A
:1009B0003E434660C668A6438C68AC403443C4607E
:1009C0004C68E40054D52F4CA56945F00105A5619C
:1009D000A46923F0030504F0010400942A4C2E19A5
:1009E000B4689D072F0F09FA07F5AC43B0F1904F9B
:1009F00004D0264DA84203D1012512E0002510E0C5
:100A0000234DA84201D102250BE0224DA84201D17D
:100A1000032506E0204DA84202D1042501E027E08D
:100A20000525BD402543B560DBF800405D464E68B6
:100A30009443F60300D514432C60DEF8004075465D
:100A40004E689443B60300D514432C600C4D083512
:100A50002C684E689443F60200D514432C60084D70
:100A60000C352C684E689443B60200D514432C60B4
:100A70005B1C0A6832FA03F47FF45AAFBDE8F88FC2
:100A80000004014000100240000001400004004842
:100A900000080048000C0048001000480148806829
:100AA000704700001000002002488168027811445D
:100AB0008160704710000020074810B5016841F0C0
:100AC00010010160032000F089F8002000F006F812
:100AD00000F03EF8002010BD0020024000B50146A5
:100AE00087B000221C2000F059F81C2000F04AF8C2
:100AF0001448C16941F00101C161C06905A900F054
:100B000001000690684600F005FA00F023FA0E494D
:100B10004000B0FBF1F10D484FF08042491E0260E9
:100B2000416040F2E7320021C0E90321816000F01A
:100B3000C2FD10B1012007B000BD044800F0D7FD90
:100B4000F9E700000010024040420F00E4020020DC
:100B50000B4882B0816941F001018161816901F036
:100B600001010091C16941F08051C161C069002259
:100B700000F0805000900F21901E02B000F00EB8DF
:100B80000010024000F01F02012191404009800046
:100B900000F1E020C0F8001170470000F0B40E4BE7
:100BA0001B680C46C3F30223C3F10705042D00D9CB
:100BB0000425191D072901D2002300E0DB1E0126B0
:100BC00006FA05F1491E214099409E40761E1640C6
:100BD0003143F0BC01F06EB90CED00E0064900F0C5
:100BE000070208684FF6FF03184040EA0220034A54
:100BF00010430860704700000CED00E00000FA05AB
:100C00002DE9F84F054600686E4CC0036FD5E069CA
:100C10000026C00008D4E06940F08050E061E0693F
:100C2000012600F08050009067480168C90512D481
:100C30000168804641F480710160FFF72FFF07468D
:100C400005E000BFFFF72AFFC01B642835D8D8F89D
:100C50000000C005F6D5206A10F4407053D0A98872
:100C600001F4407181424ED0206A4FF4803191FAF4
:100C7000A1F2B2FA82F29700544A4FF001081744E9
:100C800020F44070C7F8008491FAA1F1B1FA81F123
:100C900002EB81010023C1F800342062C00732D08A
:100CA000FFF7FCFE074641F2883A4FF0020907E0E1
:100CB000FFF7F4FEC11B514502D90320BDE8F88FB0
:100CC00099FAA9F1B1FA81F141F040014846B8EB37
:100CD000511F01D121680CE090FAA0F1B1FA81F125
:100CE00041F04001B0EB511F02D1216A01E015E053
:100CF000616A99FAA9F0B0FA80F000F01F0008FAD2
:100D000000F21142D4D0206A696820F44070084390
:100D100020621EB1E06920F08050E0612878C007B1
:100D200005D0206BA96820F00300084320632878D1
:100D3000800705D5206BE96820F440300843206324
:100D40002878400705D5206B296920F44020084306
:100D500020632878800605D5206B696920F0100093
:100D6000084320632868800305D56068A96A20F4D9
:100D70008000084360602878400605D5206BA9698B
:100D800020F02000084320632878000605D560681D
:100D9000E96920F44040084360602888000505D5D3
:100DA0006068296A20F07840084360602888400520
:100DB00005D5206B696A20F04000084320630020BD
:100DC0007CE700000010024000700040000042423A
:100DD0002DE9F0470F46050069D04A4E306800F013
:100DE0000700B84209D2306820F00700384330606D
:100DF000306800F00700B84259D12878424C80078B
:100E000005D56068A96820F0F00008436060287884
:100E1000C0073DD06968012001290DD0022923D0E7
:100E20005FF0020393FAA3F2B2FA82F242F02002D8
:100E3000520904D0226803E04FF40033F2E7626AFB
:100E400093FAA3F3B3FA83F303F01F03984002422B
:100E50002DD0606820F0030008436060FFF71EFE9D
:100E6000804641F288390CE04FF00073DAE700BFAA
:100E7000FFF714FEA0EB0801494502D90320BDE8A5
:100E8000F0876068696800F00C00B0EB810FEFD16B
:100E9000306800F00700B8420BD9306820F0070036
:100EA00038433060306800F00700B84201D00120BC
:100EB000E5E72878400705D56068E96820F4E06038
:100EC000084360602878000706D56068296920F427
:100ED000605040EAC100606000F06CF86168F02288
:100EE00092FAA2F201F0F001B2FA82F2D140074A7E
:100EF000515CC840064908600020FFF7EFFD002064
:100F0000BDE70000002002400010024074490008C4
:100F10001C0000200F2202600C4A536803F00303F8
:100F20004360536803F0F0038360536803F4E063A5
:100F3000C36052684FF4E06303EAD20202610448DE
:100F4000006800F0070008607047000000100240D1
:100F50000020024008480949006849684FF4E062EF
:100F600092FAA2F201F4E061B2FA82F2D140044AAC
:100F7000515CC840704700001C0000200010024077
:100F80008449000808480949006849684FF46052DC
:100F900092FAA2F201F46051B2FA82F2D140044A0C
:100FA000515CC840704700001C0000200010024047
:100FB00084490008144B10B55A68144802F00C011B
:100FC00004291DD008291BD14FF4701494FAA4F4FD
:100FD00002F47011B4FA84F4E1400D4CDB6A615CF8
:100FE0000F2494FAA4F403F00F03B4FA84F4E3405A
:100FF000074C1034D203E35C03D5B0FBF3F0484355
:1010000010BD0448484310BD0010024000127A0091
:101010005449000800093D002DE9F84F040071D043
:101020002078FB4DC0074FF0010625D06868770493
:10103000C0F38100012807D06868C0F3810002284E
:101040001BD16868C00318D597FAA7F0B0FA80F0F2
:1010500040F02000400901D0286800E0686A97FA53
:10106000A7F1B1FA81F101F01F0106FA01F108427E
:1010700065D060680028D2D061E06068B0F5803F3C
:101080000BD010B1B0F5A02F17D0286820F4803015
:101090002860286820F4802002E0286840F480302E
:1010A0002860E86AA16820F00F000843E8626068E1
:1010B00020B3FFF7F3FC80460AE0286840F4802064
:1010C0002860EAE7FFF7EAFCA0EB0800642872D882
:1010D00097FAA7F0B0FA80F040F02000400901D064
:1010E000286800E0686A97FAA7F1B1FA81F101F087
:1010F0001F0106FA01F10842E4D020E0FFF7CEFC20
:10110000804607E0C7E000BFFFF7C8FCA0EB08007F
:101110006428DCD897FAA7F0B0FA80F040F02000FD
:10112000400901D0286800E0686A97FAA7F1B1FA8F
:1011300081F101F01F0106FA01F10842E4D12078A3
:10114000DFF8D08280074FF0000A4FF0020759D530
:1011500068684FF0F80B10F00C0F07D06868C0F308
:10116000810002281BD16868C00318D497FAA7F041
:10117000B0FA80F040F02000400901D0286800E07B
:10118000686A97FAA7F1B1FA81F101F01F0106FA36
:1011900001F108422BD0206901287CD127E0206989
:1011A00088B396FAA6F0B0FA80F048F82060FFF70E
:1011B00075FC814606E055E1FFF770FCA0EB0900E5
:1011C000022884D897FAA7F0B0FA80F040F0200007
:1011D000400901D0286800E0686A97FAA7F1B1FADF
:1011E00081F101F01F0106FA01F10842E4D02868FC
:1011F0009BFAABF26169B2FA82F220F0F8009140FA
:101200000843286025E0FFE796FAA6F1B1FA81F1DC
:1012100048F821A0FFF742FC814605E0FFF73EFCBD
:10122000A0EB09000228CCD897FAA7F0B0FA80F01A
:1012300040F02000400901D0286800E0686A97FA71
:10124000A7F1B1FA81F101F01F0106FA01F108429C
:10125000E4D1207800076AD5A069A0B396FAA6F079
:10126000B0FA80F008EB8000C0F88064FFF716FC4D
:10127000814605E0FFF712FCA0EB09000228A0D888
:1012800097FAA7F0B0FA80F040F06000B6EB501F7C
:1012900002D128680CE077E197FAA7F0B0FA80F065
:1012A00040F06000B7EB501F01D1286A00E0686A87
:1012B00097FAA7F1B1FA81F101F01F0106FA01F2E4
:1012C0001042D7D033E0FFE796FAA6F0B0FA80F0EC
:1012D00008EB8000C0F880A4FFF7E0FB814605E042
:1012E000FFF7DCFBA0EB090002289CD897FAA7F0D7
:1012F000B0FA80F040F06000B6EB501F01D12868D2
:101300000BE097FAA7F0B0FA80F040F06000B7EB7E
:10131000501F01D1286A00E0686A97FAA7F1B1FA74
:1013200081F101F01F0106FA01F21042D8D12078B4
:10133000400774D5E8694FF00009C00009D4E86996
:1013400040F08050E861E8694FF0010900F08050FA
:10135000009031480168C90512D4016841F48071D8
:101360000160FFF79BFB834606E000BFFFF796FB9B
:10137000A0EB0B00642875D827480068C005F5D598
:10138000E06801280AD008B1052811D0286A20F0A9
:1013900001002862286A20F0040002E0286A40F078
:1013A00001002862E068C8B3FFF778FB83460DE0D0
:1013B000286A40F004002862F0E700BFFFF76EFBE8
:1013C000A0EB0B0141F2883081424BD897FAA7F08D
:1013D000B0FA80F040F04000B6EB501F01D1286811
:1013E0000BE097FAA7F0B0FA80F040F04000B7EBBE
:1013F000501F01D1286A00E0686A97FAA7F1B1FA94
:1014000081F101F01F0106FA01F21042D6D035E059
:1014100000100240000042420070004000E034E052
:10142000FFF73CFB834607E0FFF738FBA0EB0B011F
:1014300041F28830814215D897FAA7F0B0FA80F0CF
:1014400040F04000B6EB501F01D128680CE097FA3D
:10145000A7F0B0FA80F040F04000B7EB501F02D187
:10146000286A01E083E0686A97FAA7F1B1FA81F18E
:1014700001F01F0106FA01F21042D5D1B9F1000FB7
:1014800003D0E86920F08050E861E06980B36968C2
:10149000C1F38101022977D04FF080714F000228FB
:1014A00009D091FAA1F0B0FA80F048F820A0FFF737
:1014B000F5FA04465EE050468A4691FAA1F1B1FA87
:1014C00081F1C14648F82100FFF7E8FA804605E0BF
:1014D000FFF7E4FAA0EB0800022848D897FAA7F033
:1014E000B0FA80F040F02000400902D0286801E006
:1014F00056E0686A97FAA7F1B1FA81F101F01F018D
:1015000006FA01F10842E3D1D4E9081008436968FA
:1015100021F47411084368609AFAAAF0B0FA80F0D6
:1015200049F82060FFF7BAFA044604E0FFF7B6FA7C
:10153000001B02281BD897FAA7F0B0FA80F040F001
:101540002000400901D0286800E0686A97FAA7F1F6
:10155000B1FA81F101F01F0106FA01F10842E5D06C
:101560001EE000BFFFF79AFA001B022802D90320F1
:10157000BDE8F88F97FAA7F0B0FA80F040F02000AD
:10158000400902D0286801E00CE0686A97FAA7F1E8
:10159000B1FA81F101F01F0106FA01F10842E1D12F
:1015A0000020E5E70120E3E770B5040002D0607F8A
:1015B00010B106E0012070BD00202077204600F029
:1015C00049F8022060772168CA20486221685320C8
:1015D0004862204600F07EFCFF25042618BB2068E8
:1015E00081681B4A114081602168886862681043E5
:1015F000D4E904231A43104388602168E068086135
:1016000020680169228941EA024101612068C168BC
:1016100021F08001C16020688068800607D42046E0
:1016200000F02CF818B1206845626677C2E72068A0
:10163000016C21F4802101642068016CA2691143CE
:1016400001642068456201206077002070BD0000C1
:10165000BFFF8FFF0068074988420AD10120C103FC
:1016600091FAA1F1044AB1FA81F102EB8101C1F8CA
:1016700000047047002800400000424270B5044654
:101680000068C16821F0A001C160FFF707FA0546B4
:101690004FF47A7607E000BFFFF700FA401BB04234
:1016A00001D9032070BD2068C0688006F4D50020F1
:1016B00070BD7047704710B5040003D094F83D002A
:1016C00010B107E0012010BD002084F83C00204646
:1016D00000F00CF8022084F83D00211D206800F085
:1016E000A1FC012084F83D00002010BD7047016876
:1016F000CA6842F00102CA600068016841F0010155
:10170000016000207047704770B5044600680169A9
:101710004FF00005C943890715D4C168C94389073B
:1017200011D4E91E016101202077206880698007BB
:10173000204602D0FFF7E7FF04E000F098F82046CB
:1017400000F096F8257720680169C943490717D446
:10175000C168C943490713D46FF004010161022035
:1017600020772068806910F4407F204602D0FFF780
:10177000CAFF04E000F07BF8204600F079F82577F6
:1017800020680169C943090716D4C168C94309071C
:1017900012D46FF008010161042020772068C0692D
:1017A0008007204602D0FFF7AEFF04E000F05FF8AC
:1017B000204600F05DF8257720680169C943C90615
:1017C00017D4C168C943C90613D46FF01001016171
:1017D000082020772068C06910F4407F204602D09E
:1017E000FFF791FF04E000F042F8204600F040F8D7
:1017F000257720680169C943C90708D1C168C94371
:10180000C90704D1891E0161204600F032F8206822
:101810000169C943090609D4C168C943090605D449
:101820006FF0800101612046FFF743FF20680169E6
:10183000C943490609D4C168C943490605D46FF0B4
:1018400040010161204600F01BF820680169C9438E
:1018500089060BD4C168C943890607D46FF02001FB
:1018600001612046BDE87040FFF724BF70BD70479E
:1018700070470068B0F1804F01D1FFF715B970478C
:1018800070477047704710F8691F407808437047E9
:1018900070B503680446D869196810F00F0508D1BF
:1018A000820606D58A0604D52046BDE8704000F0C1
:1018B000E4BC9A68002D66D002F0010501F4907630
:1018C0002E4360D0C60707D0CE0505D501261E627F
:1018D000E36E43F00103E366830708D5D30706D020
:1018E000266802233362E36E43F00403E366430792
:1018F00008D5D20706D0236804221A62E26E42F0AD
:101900000202E26602070AD501F020022A4306D04D
:10191000236808221A62E26E42F00802E266E26E72
:10192000002A29D0800604D5880602D5204600F07A
:10193000A4FCE06E000703D42068806840061CD534
:10194000204600F07FFC20688168490611D5816837
:1019500021F040018160606E58B11C494163606EA6
:10196000FEF7B2FF002807D0606E416BBDE8704003
:1019700008472046FFF786FF70BD2046FFF782FF2D
:101980000020E06670BDC5020ED552020CD54FF4A2
:1019900080101862202084F8690084F86A002046CC
:1019A000BDE87040FFF76DBF020606D50A0604D5F4
:1019B0002046BDE8704000F05FBD4006E2D5480615
:1019C000E0D52046BDE8704000F04ABC3122000856
:1019D00010B5040003D094F8690010B107E00120AD
:1019E00010BD002084F86800204600F027F824206D
:1019F00084F869002068016821F001010160204637
:101A000000F076FC0128EBD0606A10B1204600F0AF
:101A10007DFB2068416821F4904141602068816825
:101A200021F02A0181602068016841F00101016014
:101A30002046BDE8104000F0CDBB0000F0B587B0F7
:101A4000044614216846FEF742FC444B2268444990
:101A500002270124032507264FF090409A421FD108
:101A60008A6942F480428A618A6902F4804205925E
:101A70004A6942F400324A61496902AA01F400311C
:101A800005916902CDE9001782E870006946FEF70A
:101A900041FF002205212520FFF780F8252021E0C5
:101AA000304B9A4222D1CA6942F40032CA61CA69F3
:101AB00002F4003205924A6942F400324A614969EF
:101AC00002AA01F4003105910C21CDE9001782E84A
:101AD00070006946FEF71EFF002205212620FFF751
:101AE0005DF82620FFF74EF807B0F0BD1E48824291
:101AF000FAD1C86940F48020C861C86900F4802028
:101B00000590486940F480104861486900F48010ED
:101B10000590486940F4802048614869694600F4AE
:101B2000802005909015CDE9000702AA0F4882E8B1
:101B30007000FEF7EFFE4FF40070CDE9000702AA37
:101B4000694682E870000A48FEF7E4FE002205219B
:101B50002720FFF723F82720C4E7000000380140C2
:101B6000001002400044004000480040000C0048C3
:101B70000004004890F86A30202B36D199B192B118
:101B800090F86830012B30D0012380F8683041652F
:101B9000A0F85820A0F85A208168FF22B1F5805F94
:101BA00003D039B10BE0012070470169D1B940F28F
:101BB000FF1102E00169A9B17F21A0F85C100021AA
:101BC000C166222280F86A2080F8681001688A685D
:101BD00042F001028A600068016841F4907101607E
:101BE00000207047A0F85C20E9E702207047000061
:101BF00030B50068114988420CD1114841880A0467
:101C000008D402464C0412784FF0000306D50A2A85
:101C100001D0438030BD41F400410DE00D2A09D0D0
:101C2000C1F30D04074D491C89B22A554180C729CB
:101C3000EFD830BD41F48041418030BD00440040C8
:101C400008000020CC0000202DE9F843044690F85D
:101C500069001F4616460D4620284DD1CDB1C6B1AC
:101C600094F86800012847D0012084F868004FF0FC
:101C70000008C4F86C80212084F869005034FEF715
:101C80000DFF24F8026B814624F852694FF4805608
:101C900018E00120BDE8F883B4F85200401EA4F813
:101CA00052004B46002280212046009700F016FC8F
:101CB000A0B9A068B04201D1206988B115F8010B24
:101CC00021680885B4F852000028E5D14B4600226F
:101CD00040212046009700F001FC30B10320D9E7F5
:101CE00035F8020BC0F30800EAE7202084F8690009
:101CF00084F868800020CDE70220CBE77047000021
:101D000003A35D2207A1042001F07EFBFEE7000093
:101D1000486172644661756C745F48616E646C659D
:101D2000720000002E2E2F5372632F73746D3332A6
:101D3000663378785F69742E6300000010B58AB04E
:101D400014220B496846FEF7A9FA0021684601F003
:101D500039FC084C064914222060143105A8FEF70E
:101D60009DFA002105A801F02DFC60600AB010BDAD
:101D70002C49000800000020114808B5416941F4D1
:101D800080014161416901F480010091416941F4A0
:101D900000314161416901F400310091416941F430
:101DA00080114161416901F480110091416941F460
:101DB00080214161406900F48020009008BD00004E
:101DC000001002400C4810B50A49016000217D2234
:101DD000C0E901124FF4A072C0E9032141618161A1
:101DE000FFF7E2FB002803D0BDE81040FEF76BBD13
:101DF00010BD000000280040AC0000200D4810B5C8
:101E00000B4901604FF4E1314160002181600C22F7
:101E1000C160C0E904128161C16101624162FFF7E2
:101E2000D7FD002803D0BDE81040FEF74CBD10BD23
:101E300000380140940100200D4810B50B490160A5
:101E40004FF4E1314160002181600C22C160C0E9A2
:101E500004128161C16101624162FFF7B9FD00288E
:101E600003D0BDE81040FEF72EBD10BD0044004079
:101E7000040200200D4810B50B4901604FF4E13118
:101E80004160002181600C22C160C0E904128161BF
:101E9000C16101624162FFF79BFD002803D0BDE8EC
:101EA0001040FEF710BD10BD004800407402002035
:101EB000FEE770470907090E002806DA00F00F0058
:101EC00000F1E02080F8141D704700F1E02080F858
:101ED0000014704770B504460068C168490614D400
:101EE0004FF0FF31C160FEF7D9FD05464FF47A7619
:101EF00007E000BFFEF7D2FD401BB04201D903202E
:101F000070BD2068C0684006F4D5002070BD000098
:101F100010B5502080F31188BFF34F8FBFF36F8F40
:101F200002F0B8FB18B104494FF08050086000205F
:101F300080F3118810BD000004ED00E030B59BB0C7
:101F400028216846FEF7C3F9142115A8FEF7BFF94A
:101F50002C210AA8FEF7BBF90920012100904FF4BB
:101F60008030002404910691CDE901040225CDE9D9
:101F700007504FF4E01009906846FFF74DF80F2026
:101F8000CDE915056802CDE91740022115A819947D
:101F9000FEF71EFF05480A90C0110B900C940D949B
:101FA0000E940AA8FEF72CFE1BB030BD07000100FE
:101FB0001448016841F4700101601348016841F060
:101FC000010101604168114A114041600168104AF5
:101FD00011400160016821F480210160416821F411
:101FE000FE014160C16A21F00F01C162016B094A23
:101FF00011400163002181600249C00380390860FB
:102000007047000088ED00E0001002400CC07FF82F
:10201000FFFFF6FECCFC00FF0148FFF775BB000098
:10202000E40200202DE9F04702684FF0804A254D78
:10203000254E264FDFF898C0264B274CDFF89C90A2
:10204000504507D0A84205D0B04203D0B84201D0D5
:10205000604506D122F070084A68504542EA0802FD
:1020600016D0A84214D0B04212D0B84210D01C4DA5
:10207000A8420DD01B4DA8420AD01B4DA84207D044
:10208000984205D0A04203D0484501D0604503D115
:1020900022F44075CA682A434D6922F080022A431F
:1020A00002608A68C2620A688262984203D0A042D3
:1020B00001D0484501D10969016301214161BDE8B1
:1020C000F08700000004004000080040000C0040C1
:1020D000005C0140004001400044014000480140D4
:1020E00000180040001C0040002000400022042195
:1020F000142002F091F80449C1F80000FEF792FBA9
:102100000A2001F053FAF9E7A000002090F824100B
:10211000C90706D001684A68836A22F400321A436C
:102120004A6090F82410890706D501684A68C36A96
:1021300022F480321A434A6090F82410490706D5E9
:1021400001684A68036B22F480221A434A6090F8BF
:102150002410090706D501684A68436B22F400423F
:102160001A434A6090F82410C90606D501688A68A7
:10217000836B22F480521A438A6090F824108906F7
:1021800006D501688A68C36B22F400521A438A603C
:1021900090F82410490611D501684A68036C22F4AE
:1021A00080121A434A60016CB1F5801F06D10168A4
:1021B0004A68436C22F4C0021A434A6090F8241023
:1021C000090606D501684A68806C22F400220243A1
:1021D0004A607047F8B500260446C666FEF75EFC06
:1021E0000546206800686FF07E47000708D52B463B
:1021F00000224FF400112046009700F06FF960B9FB
:102200002068006840070AD52B4600224FF4800161
:102210002046009700F062F908B10320F8BD2020A5
:1022200084F8690084F86A0084F868600020F8BDCA
:1022300010B5406A0021A0F85A10A0F85210FFF71C
:1022400021FB10BD01680A6822F490720A600168DF
:102250008A6822F001028A60202180F86A107047A3
:1022600010B501680A6822F040020A60202180F857
:102270006910FFF743FD002010BD10B5B0F85C20D9
:1022800090F86A300168222B05D0886940F0080078
:102290008861022010BD898C8368B3F5805F01D10D
:1022A00003696BB11140426D531C43651170B0F866
:1022B0005A10491E0904090CA0F85A1007D015E05D
:1022C000436D11401980416D891C4165EFE701683C
:1022D0000A6822F490720A6001688A6822F001029A
:1022E0008A60202180F86A10FFF782FC002010BD70
:1022F0002DE9F041044610202369A268E6691A43DB
:102300006369002133431A4323680D461E6849F26E
:102310000C67BE4316431E6022685368E66823F4C8
:10232000405333435360236AA2691A4323689E686B
:1023300026F4306616439E60494F2268494B0603D7
:10234000BA420CD11B6B13F0030306D0012B2BD028
:10235000022B2BD0032B2AD124E0012027E0424F6F
:10236000BA420CD11B6B13F4403319D0B3421BD0CB
:10237000B3F5003F1AD0B3F5403F18D112E03B4F00
:10238000BA4214D11B6B13F4402309D0B3F5802F4C
:102390000AD0B3F5002F09D0B3F5402F07D101E0E3
:1023A000002004E0022002E0042000E00820E769A9
:1023B0004FF400439F4226D109281DD2DFE800F0E8
:1023C0000508121C151C1C1C1800FEF7C3FD01E0BB
:1023D000FEF7D8FD4100606801EB5001B1FBF0F061
:1023E00081B20AE022496068F6E7FEF7E3FDF1E713
:1023F000606806EB5001F1E7012521F00F00C1F301
:10240000420108431CE0092825D2DFE800F0050856
:102410000B24102424241C00FEF79CFD09E0FEF789
:10242000B1FD06E01349606801EB50010EE0FEF7D4
:10243000C1FD0146606801EB5001B1FBF0F080B2D4
:102440002168C86008E0606803EB5001B1FBF0F060
:1024500080B2D06000E001252846BDE8F081000090
:102460000038014000100240004400400048004095
:102470000024F40000127A0090F86910212901D09C
:1024800002207047B0F8521021B18168B1F5805F29
:102490000BD00CE001680A6822F080020A60006834
:1024A000016841F0400101600CE0016961B1C16C5B
:1024B0004A1CC26402680978A2F8281030F8521F3A
:1024C000491E018000207047C16C02680988C1F371
:1024D00008011185C16C891CC164EFE72DE9F04149
:1024E000984617460E460446069D1DE0681C1BD004
:1024F0002DB1FEF7D3FAA0EB0800A84214D920684A
:10250000016821F4D07101602068816821F0010127
:102510008160202084F8690084F86A00002084F833
:1025200068000320BDE8F0812068C06936EA000039
:1025300004D00020B842D9D00020F3E70120F9E709
:102540000148FFF7A5B900009401002010B5084824
:10255000FFF79EF90648FFF796F92028FAD10122E5
:1025600004490348FFF706FB0028F8D110BD00001E
:1025700004020020080000200148FFF789B900008C
:1025800074020020FEE700000FB4054B10B503A94C
:10259000044A029800F0ECF810BC5DF814FB00004F
:1025A000A13300080C00002037B514460846064B3E
:1025B0006A46214600F0DCF804466946002000F037
:1025C0006EFC20463EBD00009F2E000802E008C8B9
:1025D000121F08C1002AFAD170477047002001E09D
:1025E00001C1121F002AFBD1704700002DE9FF5FD7
:1025F00082B00021DDE90430020DDDF840B0034374
:1026000018D044F61050A2F2FF324243151411982C
:1026100001281FD0A5EB0B00401C5FEA000A4FF019
:1026200000064E4FDFF83891B046504615D5CAF136
:10263000000413E0119801244AA3012801D16FEA94
:102640000B010298119AC0E90031C0E9024206B0BC
:10265000BDE8F09FCBF10000DFE704460021404ACF
:10266000491842EB0450CDE9001012E0E00707D012
:1026700032463B4640464946FDF730FF8046894694
:1026800032463B4610461946FDF728FF06460F46E0
:102690006410002CEAD1DDE90401DDE90023BAF180
:1026A000000F06DAFDF71AFF42464B46FDF716FF0C
:1026B00005E0FDF785FF42464B46FDF781FF0446E6
:1026C0000E460022284BFEF703F803D84FF0FF30E8
:1026D000014607E00022254B20463146FDF757FE14
:1026E000FDF7DDFF102409E0002C0ADB0A2200239D
:1026F000FDF71CFE039B30321A55641E50EA01029E
:10270000F2D1641C039AC4F111031444119A012AF2
:1027100003D0012208430DD10AE0084304D0002071
:102720004FF0110B119072E7A3EB0B056D1E0DE03E
:102730005B4504DD4FF0000205F1010504E003DA1A
:102740004FF00002A5F10105002AECD00298119982
:10275000C0E90231C0E9004579E7000000001440FB
:102760000000F03F300000000000F0430000E03FB8
:102770002DE9FF4F95B09B468946064600250FE29E
:10278000252877D100242746F84A0121059400E046
:10279000044316F8013F203B01FA03F01042F7D141
:1027A00030782A2811D06FF02F033078A0F1300252
:1027B000092A16D8059A44F0020402EB820203EBC0
:1027C00042021044761C0590EFE759F8042B05925D
:1027D000002A03DA504244F40054059044F0020405
:1027E000761C30782E2816D116F8010F44F0040418
:1027F0002A280DD06FF02F023078A0F13003092B7A
:1028000009D807EB870302EB4303C718761CF3E7ED
:1028100059F8047B761C30786C280FD006DC4C28E5
:1028200017D068280DD06A2814D104E0742810D07D
:102830007A280FD10DE044F400140AE044F4801427
:1028400001E044F440147278824202D104F580140D
:10285000761C761C307866280BD013DC582877D08D
:1028600009DC002875D04528F6D04628F4D0472842
:102870001AD19DE118E0632835D0642879D0652805
:1028800012D195E1702873D008DC6728F1D069284F
:102890006FD06E280DD06F2806D1B5E073282CD0EC
:1028A000752875D0782874D05A46179990476D1CB2
:1028B00075E1C4F30250022809D003280DD0D9F8DD
:1028C000001004280DD00D6009F1040967E1D9F862
:1028D0000010EA17C1E90052F6E7D9F800100D80A0
:1028E000F2E70D70F0E719F8041B8DF800100020D6
:1028F0008DF80100EA46012003E059F804AB4FF0DF
:10290000FF3061074FF0000102D40DE008F1010132
:102910008846B9420FDA8045F8DB1AF8081000291A
:10292000F4D108E008F1010188468142FADB1AF887
:1029300008100029F6D105985B46A0EB0807214650
:102940003846179A00F094FA284400EB080507E08F
:102950004DE029E10DE01AF8010B5A46179990470E
:10296000B8F10108F7D25B4621463846179A13E1C1
:1029700042E00A220092C4F302524FF0000A022AF7
:1029800008D059F804CB032A4FEAEC710AD00DE0C5
:1029900029E02AE009F1070121F00702F2E802C16B
:1029A000914609E00FFA8CFC4FEAEC71042A03D13E
:1029B0004FFA8CFC4FEAEC71002907DA0A46002135
:1029C000DCF1000C61EB02012D2202E0220504D5AE
:1029D0002B228DF80420012203E0E20701D02022FF
:1029E000F7E7904659E00A2102E010220DE010219D
:1029F0004FF0000A00910BE010224FF0000A44F063
:102A000004040827009203E008224FF0000A009215
:102A1000C4F30252022A05D059F804CB0021032A3C
:102A200008D009E009F1070121F00702F2E802C12C
:102A3000914605E01FFA8CFC042A01D10CF0FF0C32
:102A40004FF00008220728D5702806D0009B83F09D
:102A5000100353EA0A0305D00EE040228DF804204B
:102A6000012208E05CEA010206D030228DF8042041
:102A70008DF8050002229046009B83F0080353EA7C
:102A80000A030AD15CEA010201D1620705D53022AE
:102A90008DF804204FF001087F1E582804D034A080
:102AA00003900EA802900DE036A0F9E75346604669
:102AB000009AFDF73BFC84460398825C0298401E16
:102AC000029002705CEA0100F0D1029806A9081A8F
:102AD00000F1200A600702D524F4803400E00127C9
:102AE000574502DDA7EB0A0000E0002000EB0A01D9
:102AF000009005984144401A0590E00306D45B46D7
:102B00002146179A059800F0B3F90544002706E01E
:102B100001A85A46C05D179990476D1C7F1C474518
:102B2000F6DBE0030CD55B462146179A059800F0CA
:102B30009FF9054404E030205A46179990476D1CD0
:102B40000099481E00900029F5DC08E002980299DF
:102B50005A460078491C0291179990476D1CBAF1AA
:102B60000001AAF1010AF1DC65E100000928010079
:102B700030313233343536373839616263646566F3
:102B800000000000303132333435363738394142B5
:102B9000434445460000000000F058F90544761C07
:102BA000307800287FF4ECAD19B02846BDE8F08FEE
:102BB000620700D4062709F1070222F0070CFCE89F
:102BC0000223E14603F000485FEA080C02D00FF24E
:102BD000702C0DE05FEA045C02D50FF2682C07E070
:102BE0005FEAC47C02D00FF2602C01E0AFF2700CFF
:102BF0004FF0FF3823F00043CDF850C065280CD0CB
:102C000006DC452809D046281DD047283DD13DE0A7
:102C1000662818D067287ED138E00021112F01DB0B
:102C2000112000E0781CCDE9000106A90EA8FFF7ED
:102C3000DDFCDDE90F010E9A03910021009207F1FE
:102C4000010A04914DE04FF000400097CDE90110DA
:102C500006A90EA8FFF7CAFCDDE90F0203920E9B3E
:102C600011990022DDF80CA00093049211B9791C8F
:102C700000EB010AB7EB0A0004D4C0F1FF3007F102
:102C8000010A0490AAEB0700019044E0012F00DA4A
:102C900001270021112F01DD112000E03846CDE988
:102CA000000106A90EA8FFF7A1FCDDE90F010E9AAD
:102CB0000391002104910092BA4621070CD4039994
:102CC000514500DA8A46BAF1010F05DD009AAAF1F2
:102CD0000101515C302908D0B84202DA10F1040F2A
:102CE00006DA0121CDE9011015E0AAF10101E9E7B9
:102CF000002805DC049901440491AAEB000102E0DC
:102D0000411C514500DD8A460499401A401C01903F
:102D10004FF000400290200704D40198504501DB99
:102D2000CDF8048000208DF84F0002980DF14F0778
:102D3000B0F1004F25D02B200E9002984FF00208E2
:102D400000280CDA404202902D200E9007E00A2164
:102D50000298FDF7D5FA3031029007F8011DB8F15D
:102D60000001A8F10108F2DC02980028EFD1791ED9
:102D70000E980870307800F0200040F0450007F809
:102D8000020D12A8C01B00F107081498007800B1CA
:102D9000012000EB0A01019801EBE0710598414424
:102DA000401A401E0590E00306D45B462146179A60
:102DB000059800F05DF805441498007818B15A465B
:102DC000179990476D1CE00324D55B462146179A5E
:102DD000059800F04DF805441CE00498002807DB36
:102DE000DDE90301884203DD0098405C179901E0AA
:102DF000179930205A469047049805F10105401C68
:102E000004900198401E019004D12E205A46179933
:102E100090476D1CBAF10001AAF1010ADDDC05E062
:102E200017F8010B5A46179990476D1CB8F100012D
:102E3000A8F10108F4DC5B462146179A0598ABE639
:102E40002D0000002B000000200000002DE9F041C3
:102E5000044600251E461746880404D405E039467A
:102E60002020B0476D1C641EF9D52846BDE8F081CE
:102E70002DE9F041044600251E469046C80301D5C1
:102E8000302700E02027880404D505E04146384675
:102E9000B0476D1C641EF9D52846BDE8F0810A686C
:102EA000531C0B60107070472DE9F34F4FF0000971
:102EB0008FB001F126000F46CA46CB46CDF82890C8
:102EC000CDF824900446CDF8209000F039FB21463F
:102ED0000690FDF7FCF900263546A7F10108D74C0E
:102EE00077E10F982178805D31B101292AD002293C
:102EF00046D003297AD1C0E02C2809D006990C2E9F
:102F00003144887001D24645F4D1CDA36E2284E1CC
:102F10000698D5A1801CFDF7E5F958B10698D5A112
:102F2000801CFDF7DFF938B10698D4A3801C63221A
:102F300000901DE0012058E0022056E0069800F0C5
:102F40003BFA04E13038092817D806990A8802EBC1
:102F500082034FF6FF7202EA4302104480B20880F7
:102F6000B0F5967F42D90698C9A37C2200880090CC
:102F7000CEA1042000F048FAE0E7D5A384224CE17A
:102F80002D2804D0464532D1D1A3B32245E1464590
:102F900002D1CFA38F2240E1B9F1040F02D0CCA31C
:102FA00096223AE10699A1F81AA081F81CB00A9875
:102FB0004877099888770898C877D1F81A0002905E
:102FC000C98BADF80C10039900F0CEFD10B1C0A371
:102FD000A922B8E04FF00009CA46CB46CDF82890A8
:102FE000CDF824900320CDF820902070EFE02F281A
:102FF00011D03A280FD0B9F1000F10D0B9F1010F5C
:1030000018D0B9F1020F1DD0B9F1030F23D0B9F1D7
:10301000040F29D0DBE009F10100C0B2D6E00AEBD1
:103020008A024FF6FF7101EA4201084430381FFA64
:1030300080FACCE00BEB8B0100EB4100303800F064
:10304000FF0BC4E00A9901EB810100EB410030382D
:10305000C0B20A90BBE0099901EB810100EB41008D
:103060003038C0B20990B2E0089901EB810100EB61
:1030700041003038C0B20890A9E02F2811D03A287A
:103080000FD0B9F1000F11D0B9F1010F19D0B9F17A
:10309000020F1ED0B9F1030F24D0B9F1040F2AD0CA
:1030A00031E009F1010000F0FF092CE00AEB8A028F
:1030B0004FF6FF7101EA4201084430381FFA80FAE6
:1030C00021E00BEB8B0100EB4100303800F0FF0BEF
:1030D00019E00A9901EB810100EB41003038C0B2E0
:1030E0000A9010E0099901EB810100EB41003038B2
:1030F000C0B2099007E0089901EB810100EB4100A3
:103100003038C0B20890464561D1B9F1040F03D000
:103110006FA34FF4807280E0069921F820AF81F808
:1031200002B00A98C8700998087108984871086830
:1031300001908988ADF80810029900F015FD58B18A
:1031400063A34FF48F7259A1042000F05DF925703C
:10315000012011B0BDE8F08F06990A6A0192888CAF
:10316000ADF80800D1F81A000490C98BADF814101E
:10317000029B059900F0AEFD00284BD006980DF19A
:103180000409017F90F81FC0837F427F89E80E10F9
:10319000408B00905AA34FF4887244A1012000F0A4
:1031A00033F9069890F8221090F825C090F8243052
:1031B00090F8232089E80E10008C009057A340F26D
:1031C00011123AA1012000F01FF900208146761C5F
:1031D000F6B2BE42FFF485AE0698C0B156A340F2E7
:1031E000291232A1022000F00FF900231A4606A985
:1031F000A06801F02FF9012814D0069800F0DCF83F
:1032000053A34FF49A7229A1042000F0FDF8257011
:1032100000209EE753A34FF48B7224A1042000F0FA
:10322000F3F88BE659A34FF4977220A1022000F027
:10323000EBF8069800F0C0F8E9E7000098000020DD
:10324000756E657870656374656420636F6D6D611C
:103250006E643A206865616420697320746F6F2022
:103260006C6F6E670000000061645F73746172745C
:103270000000000061645F72656164006E6F20731E
:103280007563682068656164203A2573000000005A
:1032900073616D706C652074696D6520746F6F204B
:1032A0006C6F6E67203A2564000000002E2E5C6172
:1032B00070706C69636174696F6E206C617965729E
:1032C0005C6170706C69636174696F6E2E6300007D
:1032D000756E657870656374656420636F6D6D618C
:1032E0006E643A2074686520666F726D6174206F39
:1032F000662074696D652069732077726F6E670050
:1033000073746172745F74696D653A25642F256406
:103310002F25642F25643A25640D0A00656E645FCD
:1033200074696D653A25642F25642F25642F256403
:103330003A25640D0A000000636F6D6D616E6420B4
:10334000616E616C797365206F6B20200000000056
:10335000636F6D6D616E6420707574206572726F3D
:103360007200000073746172745F74696D6520632C
:10337000616E27742067726561746572207468617C
:103380006E20656E645F74696D650000636F6D6DBE
:10339000616E64202070757420206F6B0000000047
:1033A00004490A685206FCD5024AC1B20C321180A7
:1033B000704700001C38014010B5002821D0114B87
:1033C0000022001F196803E0814203D80A464968B9
:1033D0000029F9D152B11368841A9C4204D10068C3
:1033E00018441060104602E0506000E0186039B1E7
:1033F00002680B1A934203D10B681A4402604968B1
:10340000416010BDA40000200FB470B59AB00D4605
:1034100006461446642101A8FCF759FF22AA01A818
:103420002199FFF7C1F801A80090064823462A46D3
:1034300050F8261004A0FFF7A7F81AB070BC5DF88A
:1034400014FB0000800000200D0A20252D3773207A
:1034500025733A25643A25730D0A0000FDF72CFB0D
:10346000FEF76CFDFEF788FCFEF7C8FCFEF7E4FCF7
:10347000FEF700FDFEF7A6FC0DA0FFF785F815A0EE
:10348000FFF782F819A0FFF77FF81DA0FFF77CF87F
:1034900021A0FFF779F806A0FFF776F8012223496B
:1034A0002348FEF767FBFEF749FC00F086F8FEE7CD
:1034B0002F2A2A2A2A2A2A2A2A2A2A2A2A2A2A2A67
:1034C0002A2A2A2A2A2A2A2A2A2A2A2A2A2A2A2A5C
:1034D0002F0D0A004070726F6A65637420200961C5
:1034E000645F70726F6A6563740D0A00407665727E
:1034F00073696F6E202009312E300D0A0000000024
:1035000040617574686F7220200946616E58696E5B
:1035100059750D0A000000004074696D652020098E
:1035200009323031392F380D0A0000000800002020
:103530000402002001460020842900D0C81C7047E6
:10354000F0B50B30154D20F007010024144A0FE0B0
:1035500003688B420BD38B4205D95E1A4318476828
:10356000C3E9006700E04368136002C004E0021D85
:1035700010680028ECD12046002802D1286808B144
:103580000020F0BD064A07481060074A121A22F0D0
:103590000702C0E9002401202860D7E7A800002026
:1035A000A40000201C1000201812002010B500B943
:1035B000012000F0BFFC002010BD10B500F052FD4E
:1035C000002010BD3EB504460D46B0F90800FFF7D7
:1035D000B1FF02A9CDE90001208A2B4682B2D4E9CD
:1035E000001001F01DF8012801D000203EBD029816
:1035F0003EBD00002DE9F041184C0F460546E66837
:103600002068001D00F0E0FB38B9206890F82C100D
:1036100001208840216981432161681C07D137B1AD
:103620002168BDE8F0410E48091D00F005BC206886
:103630003544B5424560216805D2A06BBDE8F04134
:10364000091D00F0E1BB606B091D00F0DDFBA06A05
:10365000854200D2A562BDE8F08100002000002074
:10366000000400202DE9F041054600F0F1FB2E4C4E
:10367000A068401CA06020682C4F10B1606940B366
:103680002DE02560A068012829D1002606EB8600E0
:1036900007EB800000F0AAFB761C072EF6D3234828
:1036A0008C3000F0A3FB2148A03000F09FFB1F48A6
:1036B000B43000F09BFB1D48C83000F097FB1B485E
:1036C000DC3000F093FB19488C3060631430A06349
:1036D00005E02068E96AC06A884200D82560606A0F
:1036E000401C6062E96A0120226988401043206121
:1036F00001EB810007EB8000291D00F09DFB00F02D
:10370000C7FB606900280CD02068E96AC06A88425B
:1037100007D207494FF080500860BFF34F8FBFF3C7
:103720006F8FBDE8F08100002000002024030020FE
:1037300004ED00E070B5114E114C17E000F0C6FC2E
:103740003068B8B101F090F800F082FBF068C5680D
:10375000281D00F039FBA068401EA0606068401E74
:10376000606000F095FB284600F055F8606800287E
:10377000E4D170BD01F078F8F8E70000EC03002018
:103780002000002030B4026C0B46002A0BD0C16828
:103790001144C1604468A14201D30168C16030BCDA
:1037A0001846FCF77BBD30BC70472DE9F041856BB6
:1037B000174604460026026C82B1C7B1E068FCF7E8
:1037C0006DFDE168206C091AE1602268914202D225
:1037D0006168081AE060022F16D017E02068A8B9C7
:1037E000606800F0BBFF0646002060600EE0A06845
:1037F000FCF754FD216CA0680844A0606168884211
:1038000004D32068A06001E005B16D1E6D1CA563A6
:103810003046BDE8F08110B50446006B00F04CFB6B
:103820002046BDE8104000F047BB000010484FF4B0
:103830004061420706D0C01D0D4920F00700411A23
:10384000C1F540610B4A00230144C2E90003083975
:10385000103A21F0070111604B600B600B1AC0E9B0
:10386000001393604FF000405360D0607047000039
:10387000140400206C000020074C4FF08056074DC8
:10388000FFF758FF20680128FAD92E60BFF34F8F49
:10389000BFF36F8FF4E700002403002004ED00E085
:1038A0002DE9F0479A46DDE9098481466FF003036C
:1038B000206B03EB82021044089D20F0070670077E
:1038C00007D0502080F31188BFF34F8FBFF36F8F65
:1038D000FEE723180A5C83F834200A5C12B1401C0E
:1038E0001028F6D3002784F84370072D00D306254F
:1038F000E562C4E91157201D00F083FA04F11800B5
:1039000000F07FFA2461C5F107006462A061E764FA
:1039100084F8507052464946304600F00FF9206056
:10392000B8F1000F01D0C8F80040BDE8F0870000F2
:1039300030B5114900E011460A688242FBD34B685A
:103940005C18844203D140681844486008464368C4
:103950001C18944209D1084C103C2468A24209D09A
:1039600052681A4442600A6812680260814200D0BC
:10397000086030BD0460F9E76C00002010B5044613
:1039800000F066FAA06B28B15FF0000400F080FA46
:10399000204610BD0124F9E70648416B096829B1AA
:1039A000416BC968C9684968816270474FF0FF314F
:1039B000FAE700002000002008484068401C4FF053
:1039C000500080F3118804D0BFF34F8FBFF36F8F87
:1039D000FEE7BFF34F8FBFF36F8FFEE77400002049
:1039E0002DE9F041044600F033FA94F9455004F112
:1039F000240609E0606A48B1304600F0FBFE08B1D9
:103A000000F0BEFA6D1E6DB2002DF3DC4FF0FF36F4
:103A100084F8456000F03CFA00F01AFA94F944503A
:103A200004F1100709E0206948B1384600F0E2FED1
:103A300008B100F0A5FA6D1E6DB2002DF3DC84F81C
:103A40004460BDE8F04100F023BA00002DE9F041E8
:103A50000546002700F03AFB314E306808B9FFF701
:103A6000E5FEF06805424BD1C5B3083568070ED0B6
:103A700005F00700C0F108000544680707D0502092
:103A800080F31188BFF34F8FBFF36F8FFEE72DB325
:103A90007068854234D82248103001460C6801E035
:103AA00020460C466168A94202D221680029F7D15C
:103AB00031688C4224D0076821680160606808374B
:103AC000411B10290FD96019420708D0502080F3FC
:103AD0001188BFF34F8FBFF36F8FFEE710E0416097
:103AE0006560FFF725FF61687068401A7060B26812
:103AF000904200D2B060F06801430020C4E90001A8
:103B000000F0B2FE780707D0502080F31188BFF391
:103B10004F8FBFF36F8FFEE73846BDE8F08100009E
:103B20005C0000200449086818B10868826C521CC7
:103B300082640868704700002000002010B5031F51
:103B40004FF080741C601B1F21F001011960191FC8
:103B5000044B0B6014390A60091F6FF002024438ED
:103B60000A6010BDB93900081CB582B240F60203E4
:103B70009A4202D2B2F5F76F04D800922DA34FF407
:103B8000A47218E0C0F307420C2A10D87AB1000ED4
:103B9000012A15D0032A13D0052A11D0072A0FD0E5
:103BA000082A0DD00A2A0BD00C2A09D010E0009266
:103BB00026A340F24D122BA10420FFF725FC1AE0AA
:103BC0001F2805D9CDE900022FA34FF4AA720EE0F9
:103BD000042A05D0062A03D0092A01D00B2A0CD1C9
:103BE0001E280AD9CDE9000227A34FF4AE721DA109
:103BF0000420FFF709FC01201CBD022A07D11C2864
:103C000005D9CDE9000220A34FF4B272EFE7C8B2A4
:103C1000172804D923A34FF4B5720090CBE7C1F362
:103C200007203B2804D925A340F26F120090C2E779
:103C300000201CBD7468652079656172206973205D
:103C400077726F6E67203A25640000007468652003
:103C50006D6F6E74682069732077726F6E67203A9B
:103C6000256400002E2E5C6170706C69636174695C
:103C70006F6E206C617965725C6170706C696361F4
:103C800074696F6E2E6300006E6F20737563682019
:103C900064617920256420696E206D6F6E746820E0
:103CA0002564000074686520686F75722069732050
:103CB00077726F6E67203A25640000007468652093
:103CC0006D696E74652069732077726F6E67203A34
:103CD0002564000030B584B295B2AC4219D81CD32B
:103CE000C0F30744C2F30745AC4212D815D34FEADC
:103CF00010604FEA126290420BD80ED3C8B2DAB20B
:103D0000904206D809D3C1F30720C3F307218842A4
:103D100002D94FF0000030BD02D24FF0010030BD9B
:103D20004FF0020030BD0000134E144C4FF47A786F
:103D300000272088010417D5C5B243462A461049FA
:103D40000D48FDF781FF3068C169C9434906FBD4BE
:103D500029460B48FFF7A8F850B10AA397220FA1F4
:103D60000120FFF751FB27800120FFF71FFCE0E750
:103D70000FA39422F3E70000040200200A000020B1
:103D8000CC000020636F6D6D616E642068616E64AD
:103D90006C65206661696C75726500002E2E2F536C
:103DA00072632F6672656572746F732E6300000014
:103DB000636F6D6D616E642068616E646C65207305
:103DC0007563636573730000D0E9013201699A601D
:103DD000D0E901235A604A68824201D182684A6070
:103DE000002202610868401E0860704700F1080167
:103DF0004FF0FF32C0E90112C16001610021016092
:103E0000704700210161704730B50B685A1C02D021
:103E100000F1080202E0026904E0224654682568C5
:103E20009D42FAD953684B6099608A60516008617D
:103E30000168491C016030BD42684A6093688B602C
:103E400093685960916008610168491C016070477E
:103E5000502080F31188BFF34F8FBFF36F8F0A4953
:103E60004868401C486001280CD10848006810F0E0
:103E7000FF0F07D0502080F31188BFF34F8FBFF39F
:103E80006F8FFEE7704700007400002004ED00E033
:103E90000849486828B1401E486001D180F3118864
:103EA0007047502080F31188BFF34F8FBFF36F8F9F
:103EB000FEE700007400002070B5002827D0144DE4
:103EC000A0F108046168E868014207D1502080F33E
:103ED0001188BFF34F8FBFF36F8FFEE722683AB1AF
:103EE000502080F31188BFF34F8FBFF36F8FFEE731
:103EF0008143616000F0EAF86068696808446860BE
:103F00002046FFF715FDBDE8704000F0ADBC70BD68
:103F10005C00002006484FF47A710068B0FBF1F1B4
:103F20004FF0E020491E4161072101617047000008
:103F30001C00002010B5020014D00F48006B38B1EF
:103F4000502080F31188BFF34F8FBFF36F8FFEE7D0
:103F500000F0BCF800211046FFF74CFB00F084FC99
:103F6000002807D105494FF080500860BFF34F8FFC
:103F7000BFF36F8F10BD00002000002004ED00E0B3
:103F800001490120C86170472000002010B50C468F
:103F900050B1094909681831FFF736FF2046BDE8DE
:103FA00010400121FFF726BB502080F31188BFF39A
:103FB0004F8FBFF36F8FFEE72000002070B5040025
:103FC00039D01D4DE06A2968C96A884233D2A06998
:103FD000002804DB2868C06AC0F10700A061E16A1C
:103FE000164E01EB8101606906EB810188421FD109
:103FF000201DFFF7E9FE012150B9E06A00EB8002C5
:1040000056F8222022B92A6901FA00F082432A6177
:104010002868C06AE0622A6981401143296100EB87
:10402000800006EB8000211DBDE87040FFF704BF53
:104030002868C06AE06270BD2000002024030020D0
:1040400028B107490A6A0260C96841607047502078
:1040500080F31188BFF34F8FBFF36F8FFEE700002F
:10406000200000201CB515480024CDE9004023465F
:10407000802213A1144800F0D3FA012809D0401C73
:104080001AD1502080F31188BFF34F8FBFF36F8F89
:10409000FEE7502080F31188BFF34F8FBFF36F8F7F
:1040A00006484FF0FF312C38816201214161C46024
:1040B000BDE81C4000F040B81CBD00004C000020D2
:1040C00049444C4500000000793800080248016B63
:1040D000491C016370470000200000201448016B58
:1040E00011B10121C16170470021C1610169B1FABB
:1040F00081F1C1F11F0101EB81020E4951F822301B
:104100006BB101EB820101F108034A6852684A6011
:104110009A4201D152684A60D168016070475020CC
:1041200080F31188BFF34F8FBFF36F8FFEE700005E
:1041300020000020240300201CB532480168324AC8
:10414000914207D1502080F31188BFF34F8FBFF306
:104150006F8FFEE700682C49491E884207D1502026
:1041600080F31188BFF34F8FBFF36F8FFEE72749AE
:1041700008780190FF20087008788DF800009DF8FD
:1041800000009DF8002000F0F000904207D0502081
:1041900080F31188BFF34F8FBFF36F8FFEE79DF859
:1041A00000001B4A00F0500010700720906005E0EE
:1041B0009DF800305B008DF80030401E9DF8003007
:1041C0001B06F5D4000200F4E060906001980870CE
:1041D0000C482030016841F470010160016841F031
:1041E00070410160FFF796FE00205060FBF7F6FF7C
:1041F0000848016841F040410160FBF7DFFF002003
:104200001CBD000000ED00E071C20F4100E400E0C1
:104210007400002034EF00E070B50E46050013D0A6
:10422000D6B105FB06F04830FFF710FC040009D0BA
:1042300004F1480120468EB10160C0E90F5601210A
:1042400000F0C4F8204670BD502080F31188BFF301
:104250004F8FBFF36F8FFEE70020E4E70060ECE7CD
:104260002DE9FF4F002683B09B468A46040003D009
:10427000BAF1000F08D011E0502080F31188BFF38D
:104280004F8FBFF36F8FFEE7206C38B1502080F363
:104290001188BFF34F8FBFF36F8FFEE700F0ECF98B
:1042A000DFF824814FF000094FF0805748B9059896
:1042B00038B1502080F31188BFF34F8FBFF36F8F59
:1042C000FEE7FFF7C5FDA56B45B351462046E668FE
:1042D000FFF758FABBF1000F13D0E660606A50B1E7
:1042E00004F1240000F086FA28B1C8F80070BFF38A
:1042F0004F8FBFF36F8FFFF7CBFD012007B0BDE8F5
:10430000F08F6D1EA563206810B9FFF70BFC60608D
:1043100020690028EFD004F11000E3E7059808B108
:104320001EB106E0FFF7B4FD27E06846FFF788FE00
:104330000126FFF7ADFDFFF7C9FEFFF789FD94F9F0
:104340004400401C01D184F8449094F94500401C7D
:1043500001D184F84590FFF79BFD05A9684600F060
:1043600029F9002820460AD0FFF73AFB00F07CFA32
:104370002046FFF703FB0028A3D00020BEE7FFF78D
:10438000FDFAD8B1206830B9FFF762FD6068FFF729
:1043900015FEFFF77DFD04F124000599FFF7F6FDFA
:1043A0002046FFF71DFB00F05FFA002889D1C8F80E
:1043B0000070BFF34F8FBFF36F8F82E72046FFF788
:1043C0000FFB00F051FA7CE704ED00E070B50D46FC
:1043D000040025D0FFF73CFDD4E90F20216802FB43
:1043E000001161600021A1632168A1600A46D4E93F
:1043F0000F01401E00FB0121E16021464FF0FF301C
:1044000001F8440F487004F110008DB1FFF7EEFC85
:1044100004F12400FFF7EAFCFFF73AFD012070BD2C
:10442000502080F31188BFF34F8FBFF36F8FFEE7EB
:1044300021690029F0D000F0DDF90028ECD0044912
:104440004FF080500860BFF34F8FBFF36F8FE3E7EB
:1044500004ED00E02DE9FF4782B01D468A464FF08B
:104460000008040003D0BAF1000F08D011E050207A
:1044700080F31188BFF34F8FBFF36F8FFEE7206C7F
:1044800038B1502080F31188BFF34F8FBFF36F8F87
:10449000FEE7022D0AD1E06B012807D0502080F3FF
:1044A0001188BFF34F8FBFF36F8FFEE700F0E4F882
:1044B0003F4F4FF000094FF0805648B9049838B18B
:1044C000502080F31188BFF34F8FBFF36F8FFEE74B
:1044D000FFF7BEFCA06BE16B884207D3022D05D02D
:1044E0000498D0B1B8F1000F1AD01EE02A46514608
:1044F0002046FFF75AF9616A19B104F1240000F06F
:1045000079F920B13E60BFF34F8FBFF36F8FFFF794
:10451000BFFC012006B0BDE8F087FFF7B9FC22E040
:104520006846FFF78DFD4FF00108FFF7B1FCFFF77C
:10453000CDFDFFF78DFC94F94400401C01D184F8B7
:10454000449094F94500401C01D184F84590FFF750
:104550009FFC04A9684600F02DF830B12046FFF713
:104560003FFA00F081F90020D4E7FFF771FCA06B5F
:10457000E16B884213D1FFF78BFC04F11000049922
:10458000FFF704FD2046FFF72BFA00F06DF9002835
:104590009ED13E60BFF34F8FBFF36F8F98E7FFF759
:1045A00077FC2046FFF71CFA00F05EF990E7000068
:1045B00004ED00E070B50D46040019D005B3FFF717
:1045C00047FC164AD1682868431C0FD02368126A3A
:1045D000934202D062688A421AD96268891A81427B
:1045E00016D2401A28602046FFF72AFD002410E06A
:1045F000502080F31188BFF34F8FBFF36F8FFEE71A
:10460000502080F31188BFF34F8FBFF36F8FFEE709
:104610000124FFF73DFC204670BD00002000002073
:104620002DE9FF5F8346DDE90E87994616468A46E7
:104630009000FFF70BFA05001AD05420FFF706FA96
:10464000040012D025630021CDE90241CDE90087A5
:104650004B46324651465846FFF722F92046FFF7AF
:1046600001F8012004B0BDE8F09F2846FFF724FCC4
:104670004FF0FF30F6E700000548416919B1006BC3
:1046800018B10020704701207047022070470000D9
:10469000200000202DE9F0412E4C0027206B40B176
:1046A000A069401CA061E06900B101273846BDE85F
:1046B000F081E668761CE66013D1606B006838B163
:1046C000502080F31188BFF34F8FBFF36F8FFEE749
:1046D000606BA16B6163A063206A401C2062FFF7DE
:1046E0005BF9A06ADFF87080864209D3606B0068CE
:1046F00080B1606BC068C568686886420DD2A062F0
:104700002068C06A00EB800158F821000128CAD94E
:104710000127C8E74FF0FF30F1E7281DFFF754FBF2
:10472000A86A18B105F11800FFF74EFBE86A0121ED
:10473000226981401143216100EB800108EB810077
:10474000291DFFF779FBE86A2168C96A8842CDD341
:104750000127CBE7200000202403002070B50400CF
:104760004FF0000140D0214D2868844207D05020EE
:1047700080F31188BFF34F8FBFF36F8FFEE7A06CFC
:1047800038B1401EA064636CE26A9A422CD040B1FA
:104790002AE0502080F31188BFF34F8FBFF36F8F53
:1047A000FEE7201DFFF710FB114A012150B9E06A16
:1047B00000EB800352F8233023B92B6901FA00F093
:1047C00083432B61606CE062C0F10700A061E06A86
:1047D0002B6981401943296100EB800002EB8000C6
:1047E000211DFFF729FB0121084670BD2000002094
:1047F000240300202DE9F041C068C468ACB104F185
:1048000018000746FFF7E0FA154D286B0126A0B106
:1048100039461448FFF710FBE06A2968C96A8842E4
:104820001CD90120EE61BDE8F081502080F3118891
:10483000BFF34F8FBFF36F8FFEE7201DFFF7C4FA62
:10484000E16A2A6906FA01F01043286101EB810050
:104850000449B43901EB8000211DDBE70020E2E7C9
:1048600020000020D80300202DE9F0472C4D002423
:104870002746286B38B1FFF7EBFA286B401E2863F8
:10488000286B40B146E0502080F31188BFF34F8F72
:10489000BFF36F8FFEE7A968224E0120D1B3A6F1C6
:1048A000B40980463068E8B1F068C46804F11800C3
:1048B000FFF78AFA201DFFF787FAE06A2A6908FAEB
:1048C00000F11143296100EB800109EB8100211DFA
:1048D000FFF7B2FAE06A2968C96A8842E2D3C5F8EC
:1048E0001C80DFE70CB1FFF757F8AC6944B14646CE
:1048F000FFF7D0FE00B1EE61641EF9D10020A8617F
:10490000E86938B10849012738070860BFF34F8FBD
:10491000BFF36F8FFFF7BCFA3846BDE8F0870000A1
:1049200020000020D803002004ED00E09849000892
:10493000ED200008000000000000000080000000E2
:104940008C490008293D000800000000000000001C
:104950008000000002030405060708090A0B0C0D7D
:104960000E0F10100102030405060708090A0B0CBC
:104970000D0E0F10000000000000000001020304F3
:104980000607080900000000010203045461736B6C
:1049900055325F52560000007461736B636F6E6630
:1049A000696700005B54524143455D005B444542EA
:1049B00055475D005B464154414C5D005B57415299
:1049C0004E5D00005B494E464F5D00005B45525214
:1049D0004F525D00F449000800000020AC000000C8
:1049E000CC250008A04A0008AC0000206C1500008F
:1049F000DC250008000000000000000000000000AE
:104A00000000000001000000100000000000000095
:104A100000127A000000000000000000000000000A
:104A20000000000000000000000000000000000086
:104A30000000000000000000000000000000000076
:104A40000000000000000000000000000000000066
:104A50000000000000000000000000000000000056
:104A6000000000000000000000000000AAAAAAAA9E
:104A700000000000A4490008AC490008C44900082F
:104A8000BC490008CC490008B449000800000000F7
:104A90000000000000000000000000000000000016
:040000050800018965
:00000001FF
